:100000000C945E000C9486000C9486000C94860080
:100010000C9486000C9486000C9486000C94860048
:100020000C9486000C9486000C9486000C94860038
:100030000C9486000C9486000C9486000C94860028
:100040000C948C070C9486000C9486000C9486000B
:100050000C9486000C9486000C9486000C94860008
:100060000C94D6070C9486000000000024002700A2
:100070002A0000000008000201000003040700003D
:10008000000000000000010204081020408001026E
:1000900004081020010204081020000000002500C0
:1000A00028002B00040404040404040402020202D5
:1000B0000202030303030303F508010D11241FBE0D
:1000C000CFEFD8E0DEBFCDBF11E0A0E0B1E0E2EEBF
:1000D000FCE102C005900D92A83DB107D9F722E0DE
:1000E000A8EDB1E001C01D92A13AB207E1F710E01E
:1000F000CDE5D0E004C02197FE010E94390DCC353A
:10010000D107C9F70E946B090C94640E0C9400008F
:100110008F929F92AF92BF92CF92DF92EF92FF9217
:100120002091890230918A02232B09F440C04C01AE
:10013000AA24BB24C72ED82EE92EFF24BC2DA62F1F
:1001400020918F02482D222391F0A22FB0E0A89D8C
:10015000F001A99DF00DB89DF00D11244F2F2C9D9D
:1001600060011124BD2D269FC0011124A92FE0910B
:100170009502809190029091910220919202E21753
:1001800021F0E80FF92FF11D1082E0919202E80FA3
:10019000F92FF11D4083E0919302E80FF92FF11D33
:1001A000B08320919402820F911DFC01A083FF90E7
:1001B000EF90DF90CF90BF90AF909F908F90089579
:1001C000E0917302F0917402309729F0109270025E
:1001D00010926F0209940895089590E0FC01EE5882
:1001E000FF4F2491FC01EA57FF4F3491FC01EC557D
:1001F000FF4FE491EE23C9F0222339F0233001F1BF
:10020000A8F4213019F1223029F1F0E0EE0FFF1FA0
:10021000E656FF4FA591B4918FB7F894EC91611118
:1002200026C030953E233C938FBF08952730A9F018
:100230002830C9F0243049F7809180008F7D03C0B9
:10024000809180008F7780938000DFCF84B58F7797
:1002500084BDDBCF84B58F7DFBCF8091B0008F77DD
:100260008093B000D2CF8091B0008F7DF9CF3E2B2C
:10027000DACFCF93DF9390E0FC01EA57FF4F249150
:100280008C559F4FFC0184918823D1F090E0880F1A
:10029000991FFC01E859FF4FA591B491FC01E65666
:1002A000FF4FC591D49161110EC09FB7F8948C9106
:1002B000E22FE0958E238C932881E223E8839FBF71
:1002C000DF91CF9108958FB7F894EC91E22BEC93E6
:1002D0008FBFF6CF3FB7F89480916402909165028A
:1002E000A0916602B091670226B5A89B05C02F3F7A
:1002F00019F00196A11DB11D3FBFBA2FA92F982F4C
:100300008827BC01CD01620F711D811D911D42E046
:10031000660F771F881F991F4A95D1F708950F938D
:100320001F93CF93DF93CDB7DEB729970FB6F8941D
:10033000DEBF0FBECDBF8091900290919102892BBC
:1003400009F467C00E946A01009196021091970219
:100350002091980230919902601B710B820B930BD4
:100360006C3271408105910568F3F89480918B029D
:1003700090918C029A838983E0919002F09191028E
:10038000DF0111968081898790918702E0919A021E
:10039000F0919B0280919C02992309F445C09081C1
:1003A000982B98879081809589238F838F818C8368
:1003B00088E08B8358856F8149853B812C818981B9
:1003C0009A81508347FD252F3A952083262F39F0B7
:1003D000441F00C000006083000000C0F2CF38E07E
:1003E0004D9160830000019761F7F0939B02E093C9
:1003F0009A0249873B832C839A83898378940E944D
:100400006A0160939602709397028093980290938A
:10041000990229960FB6F894DEBF0FBECDBFDF91CB
:10042000CF911F910F9108959081982B988790817B
:10043000809589238F838F818E8388E08D83588573
:100440006F8149853D812E8189819A81508347FD45
:10045000252F00C000C0208300C000C000C000C025
:1004600000C060830000262F3A9541F0441F000031
:1004700000C000C000C000C000C0E8CF38E04D910F
:1004800000C0608300C0019709F7F0939B02E093DE
:100490009A0249873D832E83AFCF8F929F92AF926E
:1004A000BF92CF92DF92EF92FF924B015C010E94CC
:1004B0006A016B017C010E946A016C197D098E0939
:1004C0009F09683E734081059105A8F321E0821AD7
:1004D0009108A108B10888EEC80E83E0D81EE11C7F
:1004E000F11C81149104A104B10429F7FF90EF904D
:1004F000DF90CF90BF90AF909F908F90089585ED43
:100500008093BC008091BC0084FDFCCF10926E02F1
:10051000089520911802260F3327331F2132310509
:10052000ECF420916E02FC0190E080E0243069F050
:1005300082E00895A09118022191AC0148505E4FCD
:10054000A40FB52FB11D2C930196861798F38091B7
:100550001802680F6093180280E0089581E0089502
:100560000895E091720280917102E81730F4F0E092
:10057000E852FE4F808190E008958FEF9FEF08953D
:1005800090917202809171022FEF3FEF981748F41B
:10059000E92FF0E0E852FE4F208130E09F5F90931A
:1005A0007202C90108958091710290917202891BB3
:1005B000990B0895CF93DF93CB01EA01642F0E943A
:1005C0008902CE01DF91CF910895CF93DF931F92DF
:1005D000CDB7DEB7698361E0CE0101960E94890242
:1005E00081E090E00F90DF91CF91089590E080E05E
:1005F000089580917802813031F58091790290914F
:100600007A0282309105B9F12CF4009751F00197EC
:10061000D9F0089583309105D9F1049709F445C0C4
:100620000895E09177028E2F90E0FC01EE0FFF1FFE
:10063000E80FF91FEA5FFE4F60818BE792E00E94AE
:10064000E502109278020895E09177028E2F90E0F3
:10065000FC01EE0FFF1FE80FF91FEA5FFE4F6181FB
:100660008BE792E00E94E5021092780210927A02E3
:10067000109279020895E09177028E2F90E0FC01AC
:10068000EE0FFF1FE80FF91FEA5FFE4F6181D5CF24
:10069000E09177028E2F90E0FC01EE0FFF1FE80F34
:1006A000F91FEA5FFE4F6281DBCFE09177028E2F68
:1006B00090E0FC01EE0FFF1FE80FF91FEA5FFE4F0D
:1006C0006281BBCF60E070E0CB010E9488000C9497
:1006D0008F0163E070E080E090E00E9488000C945D
:1006E0008F0160E081E10E94ED0061E080E10E9405
:1006F000ED0061E08FE00E94ED0061E08EE00E947D
:10070000ED0062E070E080E090E00E944D0289B16F
:100710008F3E09F463C078F48F3B09F479C08F3DB4
:1007200009F469C08F3769F489B18F3F09F47DC03E
:100730000E946903F9CF8B3FB9F1C8F4873F09F4F0
:1007400040C083B1873D09F4A5C008F075C08F395A
:1007500009F4C1C08F3C09F4AAC08F3509F0C8C0A4
:1007600083B18F3D09F4B0C00E946903F9CF8D3F7A
:1007700079F08E3F31F789B18F3F19F00E946903FC
:10078000FACF0E94620381E08093780280E00895AE
:1007900089B18F3F19F00E946903FACF0E9462036A
:1007A00081E080937802089589B18F3F19F00E940B
:1007B0006903FACF0E94620381E08093780282E0AD
:1007C000089589B18F3F19F00E946903FACF0E9402
:1007D000620381E08093780283E0089589B18F3FBE
:1007E00019F00E946903FACF0E94620381E08093AE
:1007F000780284E0089589B18F3F19F00E9469035F
:10080000FACF0E94620381E08093780285E0089528
:1008100089B18F3F19F00E946903FACF0E946203E9
:1008200081E08093780286E008950E94620381E06F
:100830008093780287E008958D3DC1F08E3D49F0A8
:100840008B3D09F055C083B18F3DE9F00E946903EB
:10085000FACF83B18F3D19F00E946903FACF0E944D
:10086000620381E08093780288E0089583B18F3D30
:1008700019F00E946903FACF0E94620381E080931D
:10088000780289E008950E94620381E080937802F3
:100890008AE0089583B18F3D19F00E946903FACF71
:1008A0000E94620381E0809378028BE0089583B117
:1008B0008F3D19F00E946903FACF0E94620381E024
:1008C000809378028CE008950E94620381E0809317
:1008D00078028DE0089583B18F3D19F00E9469037D
:1008E000FACF0E94620381E0809378028EE008953F
:1008F00061E081E10E94ED0060E080E10E94ED0096
:1009000061E08FE00E94ED0061E08EE00E94ED006A
:1009100062E070E080E090E00E944D0289B18F3E7D
:1009200009F464C078F48F3B09F47AC08F3D09F470
:100930006AC08F3769F489B18F3F09F47EC00E9485
:100940006903F9CF8B3FC1F1C8F4873F09F441C077
:1009500083B1873D09F4A6C008F076C08F3909F449
:10096000C2C08F3C09F4ABC08F3509F0C9C083B158
:100970008F3D09F4B1C00E946903F9CF8D3F79F032
:100980008E3F31F789B18F3F19F00E946903FACF8A
:100990000E94620381E08093780280E1089589B12A
:1009A0008F3F19F00E946903FACF0E94620381E031
:1009B0008093780281E1089589B18F3F19F00E94F8
:1009C0006903FACF0E94620381E08093780282E19A
:1009D000089589B18F3F19F00E946903FACF0E94F0
:1009E000620381E08093780283E1089589B18F3FAB
:1009F00019F00E946903FACF0E94620381E080939C
:100A0000780284E1089589B18F3F19F00E9469034B
:100A1000FACF0E94620381E08093780285E1089515
:100A200089B18F3F19F00E946903FACF0E946203D7
:100A300081E08093780286E108950E94620381E05C
:100A40008093780287E108958D3DC1F08E3D49F095
:100A50008B3D09F055C083B18F3DE9F00E946903D9
:100A6000FACF83B18F3D19F00E946903FACF0E943B
:100A7000620381E08093780288E1089583B18F3D1D
:100A800019F00E946903FACF0E94620381E080930B
:100A9000780289E108950E94620381E080937802E0
:100AA0008AE1089583B18F3D19F00E946903FACF5E
:100AB0000E94620381E0809378028BE1089583B104
:100AC0008F3D19F00E946903FACF0E94620381E012
:100AD000809378028CE108950E94620381E0809304
:100AE00078028DE1089583B18F3D19F00E9469036A
:100AF000FACF0E94620381E0809378028EE108952C
:100B000061E081E10E94ED0061E080E10E94ED0082
:100B100060E08FE00E94ED0061E08EE00E94ED0059
:100B200062E070E080E090E00E944D0289B18F3E6B
:100B300009F460C078F48F3B09F476C08F3D09F466
:100B400066C08F3761F489B18F3F09F47AC00E9483
:100B50006903F9CF8B3FA1F1C0F4873FF1F183B175
:100B6000873D09F4A3C008F073C08F3909F4BFC0F2
:100B70008F3C09F4A8C08F3509F0C6C083B18F3D02
:100B800009F4AEC00E946903F9CF8D3F61F08E3F3A
:100B900031F789B18F3FE9F70E94620381E08093CA
:100BA000780280E2089589B18F3F19F00E946903AD
:100BB000FACF0E94620381E08093780281E2089577
:100BC00089B18F3F19F00E946903FACF0E94620336
:100BD00081E08093780282E2089589B18F3F19F015
:100BE0000E946903FACF0E94620381E08093780239
:100BF00083E2089589B18F3F19F00E946903FACF0B
:100C00000E94620381E08093780284E2089589B1B2
:100C10008F3F19F00E946903FACF0E94620381E0BE
:100C20008093780285E2089589B18F3F19F00E9480
:100C30006903FACF0E94620381E08093780286E222
:100C400008950E94620381E08093780287E208950C
:100C50008D3DC1F08E3D49F08B3D09F055C083B10B
:100C60008F3DE9F00E946903FACF83B18F3D19F0FF
:100C70000E946903FACF0E94620381E080937802A8
:100C800088E2089583B18F3D19F00E946903FACF7D
:100C90000E94620381E08093780289E208950E94B5
:100CA000620381E0809378028AE2089583B18F3DE8
:100CB00019F00E946903FACF0E94620381E08093D9
:100CC00078028BE2089583B18F3D19F00E94690389
:100CD000FACF0E94620381E0809378028CE208954B
:100CE0000E94620381E0809378028DE2089583B1CF
:100CF0008F3D19F00E946903FACF0E94620381E0E0
:100D0000809378028EE2089561E081E10E94ED0017
:100D100061E080E10E94ED0061E08FE00E94ED0063
:100D200060E08EE00E94ED0062E070E080E090E024
:100D30000E944D0289B18F3E09F460C078F48F3B68
:100D400009F476C08F3D09F466C08F3761F489B12C
:100D50008F3F09F47AC00E946903F9CF8B3FA1F15C
:100D6000C0F4873FF1F183B1873D09F4A3C008F0D7
:100D700073C08F3909F4BFC08F3C09F4A8C08F3508
:100D800009F0C6C083B18F3D09F4AEC00E9469036B
:100D9000F9CF8D3F61F08E3F31F789B18F3FE9F791
:100DA0000E94620381E08093780280E3089589B114
:100DB0008F3F19F00E946903FACF0E94620381E01D
:100DC0008093780281E3089589B18F3F19F00E94E2
:100DD0006903FACF0E94620381E08093780282E384
:100DE000089589B18F3F19F00E946903FACF0E94DC
:100DF000620381E08093780283E3089589B18F3F95
:100E000019F00E946903FACF0E94620381E0809387
:100E1000780284E3089589B18F3F19F00E94690335
:100E2000FACF0E94620381E08093780285E30895FF
:100E300089B18F3F19F00E946903FACF0E946203C3
:100E400081E08093780286E308950E94620381E046
:100E50008093780287E308958D3DC1F08E3D49F07F
:100E60008B3D09F055C083B18F3DE9F00E946903C5
:100E7000FACF83B18F3D19F00E946903FACF0E9427
:100E8000620381E08093780288E3089583B18F3D07
:100E900019F00E946903FACF0E94620381E08093F7
:100EA000780289E308950E94620381E080937802CA
:100EB0008AE3089583B18F3D19F00E946903FACF48
:100EC0000E94620381E0809378028BE3089583B1EE
:100ED0008F3D19F00E946903FACF0E94620381E0FE
:100EE000809378028CE308950E94620381E08093EE
:100EF00078028DE3089583B18F3D19F00E94690354
:100F0000FACF0E94620381E0809378028EE3089515
:100F1000109278028FEF08951F920F920FB60F92E2
:100F200011242F933F938F939F93AF93BF938091FF
:100F3000600290916102A0916202B09163023091CF
:100F40005F0223E0230F2D3758F50196A11DB11D37
:100F500020935F028093600290936102A0936202EB
:100F6000B09363028091640290916502A091660241
:100F7000B09167020196A11DB11D80936402909308
:100F80006502A0936602B0936702BF91AF919F91F3
:100F90008F913F912F910F900FBE0F901F9018953A
:100FA00026E8230F0296A11DB11DD2CF1F920F92EA
:100FB0000FB60F9211242F933F934F935F936F932C
:100FC0007F938F939F93AF93BF93EF93FF93809102
:100FD000B900887F803609F44AC0F0F5883209F4F8
:100FE000A7C018F5803109F49BC0B8F4882309F430
:100FF000F9C0883009F494C0FF91EF91BF91AF918F
:101000009F918F917F916F915F914F913F912F9120
:101010000F900FBE0F901F901895883109F488C06B
:10102000803251F780933B0214C0803409F49DC094
:1010300040F48033B9F38833F9F680933B0285ECB2
:10104000B0C0803509F485C0883509F496C088346D
:1010500099F60E947F02D0CF883909F48CC038F508
:10106000883729F050F4883611F0803729F683E06C
:1010700080936E0210923A0257C0883809F47BC000
:10108000803919F0803809F0B7CF80913A02803268
:1010900008F071C0E0913A0281E08E0F80933A022D
:1010A0008091BB00F0E0E65EFD4F80833DC0803B59
:1010B00039F0E0F4803A09F479C0883A09F09CCF1D
:1010C00084E080936E021092190210921802E0914F
:1010D0006A02F0916B0209958091180281110FC08C
:1010E00081E0809318021092F80109C0803C09F455
:1010F000A6CF883C09F4A3CF883B09F07DCFE091CF
:10110000190281E08E0F80931902F0E0E850FE4F43
:1011100080818093BB00909119028091180229C0B0
:1011200080915E028093BB0085EC8093BC0064CF0D
:1011300090915D0280915C02981758F5E0915D02F4
:1011400081E08E0F80935D02F0E0E45CFD4F8081D2
:10115000E9CFE0915D0281E08E0F80935D02809186
:10116000BB00F0E0E45CFD4F808390915D028091D4
:101170005C029817C8F285E8D8CFE0915D0281E063
:101180008E0F80935D028091BB00F0E0E45CFD4F28
:10119000808380916D0281115CCF81E080936C022D
:1011A00084EA8093BC0010926E0226CF85EC809377
:1011B000BC0010926E0280913A02803230F4E091CD
:1011C0003A02F0E0E65EFD4F108260913A0270E074
:1011D000E0916802F09169028AE192E0099510922B
:1011E0003A020ACF10923B0234CF10927E02109244
:1011F0007D0288EE93E0A0E0B0E080937F029093C0
:101200008002A0938102B09382028AEC91E09093D5
:101210007C0280937B021092880210928F021092BF
:10122000960210929702109298021092990281E011
:1012300080939502809392021092930292E0909391
:1012400094028093870283E090E090938C028093D5
:101250008B020E943F0D9093910280939002009721
:1012600089F123E0FC0111922A95E9F781E090E0F1
:1012700090938A02809389028DE090E090938E0291
:1012800080938D0280918802882341F061E08DE097
:101290000E94390160E08DE00E94ED00E1EBF0E09A
:1012A000E491F0E0EE0FFF1FE656FF4F8591949119
:1012B00090939B0280939A02E3E9F0E0E491E0933B
:1012C0009C02089510928C0210928B0210928A0256
:1012D00010928902D1CF789484B5826084BD84B5A0
:1012E000816084BD85B5826085BD85B5816085BD21
:1012F00080916E00816080936E00109281008091D9
:101300008100826080938100809181008160809360
:101310008100809180008160809380008091B10085
:1013200084608093B1008091B00081608093B000B0
:1013300080917A00846080937A0080917A00826044
:1013400080937A0080917A00816080937A00809106
:101350007A00806880937A001092C10061E081E198
:101360000E94390161E080E10E94390161E08FE073
:101370000E94390161E08EE00E94390161E08EE057
:101380000E94ED0060E08FE00E94ED0060E080E1EF
:101390000E94ED0060E081E10E94ED0014B88FEF43
:1013A00085B91AB88BB980918D0290918E0297FD04
:1013B00008C061E00E94390160E080918D020E94C6
:1013C000ED0081E080938802C12CD12C7601C70109
:1013D000B6010E9488000E948F0166E070E080E004
:1013E00090E00E944D028FEFE81AF80AC114D10470
:1013F0008EE1E806F10459F7C701B6010E948800A2
:101400000E948F0166E070E080E090E00E944D0253
:1014100081E0E81AF108C114D104E104F10461F794
:10142000C701B6010E9488000E948F0166E070E04B
:1014300080E090E00E944D028FEFD81AE80AF80A87
:10144000C1148EE1D806E104F10451F7C701B601D9
:101450000E9488000E948F0166E070E080E090E0CA
:101460000E944D0281E0D81AE108F108C114D104AC
:10147000E104F10459F7C701B6010E9488000E94F7
:101480008F0166E070E080E090E00E944D028FEFF7
:10149000C81AD80AE80AF80A8EE1C816D104E1048D
:1014A000F10449F7C701B6010E9488000E948F012C
:1014B00066E070E080E090E00E944D0281E0C81A92
:1014C000D108E108F10871F760E070E0CB010E94FB
:1014D00088000E948F011092720210927102109285
:1014E000700210926F0210926E0281E080936D0282
:1014F00010926C0261E082E10E94ED0061E083E104
:101500000E94ED008091B9008E7F8093B900809198
:10151000B9008D7F8093B90088E48093B80085E49A
:101520008093BC0080EE90E090936B0280936A02FF
:101530008CEE90E090936902809368028EEB80932A
:10154000BA0089EF92E0909374028093730286E070
:10155000E82EF12C92E0C92ED12C20E0622E20E062
:10156000722EC4E0D0E05524539433E0832E912CA6
:10157000AA24A394B12C02E010E08091790290910A
:101580007A028230910509F426C1BCF40097E9F192
:10159000019709F4AAC00E948F0180917502909171
:1015A0007602019690937602809375026AE070E06D
:1015B00080E090E00E944D0265C08330910509F4FF
:1015C0006CC1049741F760E075E080E090E00E9414
:1015D0008800809178028111DECF0E947103809390
:1015E0007702803309F4E7C18F3FA9F2803209F016
:1015F00079C00E9471038F3F09F4C2C161E070E0BD
:1016000080E090E00E944D02F4CF60E070E0CB01FA
:101610000E948800809178028111BDCF0E947103E1
:10162000809377028033A9F18F3F09F4B4CF8032E1
:1016300009F058C00E9471038F3F39F061E070E0FB
:1016400080E090E00E944D02F5CF68EC70E080E011
:1016500090E00E944D020E947103803279F4109351
:101660007A02009379020E9471038F3F59F061E082
:1016700070E080E090E00E944D02F5CFB0927A02D7
:10168000A09279026114710409F477CF0E940000DE
:1016900074CF0E9471038F3F39F061E070E080E009
:1016A00090E00E944D02F5CF68EC70E080E090E0A1
:1016B0000E944D020E947103803379F4D0937A0224
:1016C000C09379020E9471038F3FE1F261E070E004
:1016D00080E090E00E944D02F5CF90927A028092D5
:1016E0007902D0CF5092780256CF809175029091B6
:1016F0007602B7010E94110DCB01B6010E94110DB7
:101700000197F9F460E070E0CB010E9488008091BD
:101710007802811140CF0E94710380937702803359
:10172000A1F18F3F09F437CF8032E1F60E947103B7
:101730008F3F61F061E070E080E090E00E944D0238
:10174000F5CF60E070E085E090E0DFCF68EC70E01E
:1017500080E090E00E944D020E947103803281F48B
:1017600010937A02009379020E9471038F3F09F46B
:1017700089CF61E070E080E090E00E944D02F4CFFC
:1017800010927A02109279027DCF0E9471038F3FEE
:1017900039F061E070E080E090E00E944D02F5CF0A
:1017A00068EC70E080E090E00E944D020E947103BE
:1017B000803309F092CFD0937A02C09379020E94CD
:1017C00071038F3F09F45ECF61E070E080E090E04C
:1017D0000E944D02F4CF60E070E085E090E00E944E
:1017E0008800809178028111D6CE0E947103809387
:1017F0007702803361F18F3F09F4CDCE803209F05A
:1018000071CF0E9471038F3F39F061E070E080E09A
:1018100090E00E944D02F5CF68EC70E080E090E02F
:101820000E944D020E947103803209F0A9CF1092EC
:101830007A02109279020E9471038F3F09F422CF3D
:1018400061E070E080E090E00E944D02F4CF0E94E1
:1018500071038F3F39F061E070E080E090E00E941A
:101860004D02F5CF68EC70E080E090E00E944D0200
:101870000E947103803309F030CFD0937A02C09375
:1018800079020E9471038F3F09F4FCCE61E070E0A1
:1018900080E090E00E944D02F4CF8091750290911B
:1018A0007602B7010E94110DCB01B6010E94110D05
:1018B000019701F560E070E0CB010E948800809103
:1018C0007802811168CE0E94710380937702803381
:1018D00089F18F3F09F45FCE803209F003CF0E9477
:1018E00071038F3F61F061E070E080E090E00E9462
:1018F0004D02F5CF60E075E080E090E0DECF68EC6F
:1019000070E080E090E00E944D020E9471038032FE
:1019100009F0B4CE10937A02009379020E94710309
:101920008F3F09F4AFCE61E070E080E090E00E946C
:101930004D02F4CF0E9471038F3F39F061E070E0F7
:1019400080E090E00E944D02F5CF68EC70E080E00E
:1019500090E00E944D020E947103803309F010CF85
:10196000D0937A02C09379020E9471038F3F09F4E9
:1019700089CE61E070E080E090E00E944D02F4CFFB
:1019800068EC70E080E090E00E944D020E947103DC
:10199000803209F073CE10937A02009379020E948C
:1019A00071038F3F09F46ECE61E070E080E090E05B
:1019B0000E944D02F4CF0E9471038F3F39F061E025
:1019C00070E080E090E00E944D02F5CF68EC70E09E
:1019D00080E090E00E944D020E947103803309F084
:1019E000CFCE10927A02109279020E9471038F3F3B
:1019F00009F448CE61E070E080E090E00E944D0282
:101A0000F4CF80919002909191020E94DB0D809121
:101A10008D0290918E0297FD03C060E00C94390115
:101A2000089597FB072E16F4009407D077FD09D090
:101A30000E94250D07FC05D03EF4909581959F4F9F
:101A40000895709561957F4F0895AA1BBB1B51E1C6
:101A500007C0AA1FBB1FA617B70710F0A61BB70B1E
:101A6000881F991F5A95A9F780959095BC01CD01C3
:101A70000895EE0FFF1F0590F491E02D09940F9348
:101A80001F93CF93DF938230910510F482E090E0B2
:101A9000E0919F02F091A00230E020E0B0E0A0E0F1
:101AA000309799F42115310509F44AC0281B390BE8
:101AB00024303105D8F58A819B816115710589F142
:101AC000FB0193838283FE0111C040815181028119
:101AD000138148175907E0F04817590799F41097F0
:101AE00061F012960C93129713961C933296CF01C5
:101AF000DF91CF911F910F91089500939F02109352
:101B0000A002F4CF2115310551F04217530738F0E8
:101B1000A901DB019A01BD01DF01F801C1CFEF018D
:101B2000F9CF9093A00280939F02CDCFFE01E20FE8
:101B3000F31F819391932250310939832883D7CFA2
:101B400020919D0230919E02232B41F420910201AD
:101B50003091030130939E0220939D022091000159
:101B6000309101012115310541F42DB73EB7409167
:101B7000040150910501241B350BE0919D02F09169
:101B80009E02E217F307A0F42E1B3F0B281739071C
:101B900078F0AC014E5F5F4F2417350748F04E0FC9
:101BA0005F1F50939E0240939D02819391939FCF1C
:101BB000F0E0E0E09CCFCF93DF930097E9F0FC01E9
:101BC000329713821282A0919F02B091A002ED0180
:101BD00030E020E01097A1F420813181820F931F23
:101BE00020919D0230919E022817390709F061C0AB
:101BF000F0939E02E0939D02DF91CF910895EA0158
:101C0000CE17DF07E8F54A815B819E01411551053A
:101C1000B1F7E901FB83EA8349915991C40FD51FBC
:101C2000EC17FD0761F4808191810296840F951F66
:101C3000E90199838883828193819B838A83F0E081
:101C4000E0E012968D919C9113970097B9F52D9134
:101C50003C911197CD010296820F931F20919D0216
:101C600030919E022817390739F6309751F51092B6
:101C7000A00210929F02B0939E02A0939D02BCCF3F
:101C8000D383C28340815181840F951FC817D90720
:101C900061F44E5F5F4F88819981480F591F5183CE
:101CA00040838A819B81938382832115310509F0CA
:101CB000B0CFF093A002E0939F029ECFFD01DC0124
:101CC000C0CF13821282D7CF10E0CDE5D0E004C0A0
:101CD000FE010E94390D2196CE35D107C9F7F8943F
:021CE000FFCF34
:101CE2000000A102800031218032408133238234FE
:101CF2002483352584365E85372686382A87392817
:101D02008830298900000000000000000000000067
:101D120000000000000071518A77578B65458C7274
:101D2200528D74548E79598F7555906949916F4FC0
:101D3200927050931B7E942B2D953A3B962C2E97A6
:101D420008089800000080800061419973539A64EA
:101D5200449B66469C67479D68489E6A4A9F6B4BB8
:101D6200A06C4CA17B7DA23C3EA32F5FA45C3DA551
:101D72002722A60000008181002020A77A5AA87895
:101D820058A96343AA7656AB6242AC6E4EAD6D4D16
:101D9200AE3FB4AF7CB5B05BB6B15DB7B20D0DB3BB
:101DA20000000000000000000000E502DA02F60276
:081DB200B002D302C002B1022D
:00000001FF
