:100000000C9463000C948B000C948B000C948B006C
:100010000C948B000C948B000C948B000C948B0034
:100020000C948B000C948B000C948B000C948B0024
:100030000C948B000C948B000C948B000C948B0014
:100040000C9452050C948B000C948B000C948B0038
:100050000C948B000C948B000C948B000C948B00F4
:100060000C949C050C948B000000000023002600DB
:10007000290000000000240027002A0000000008DA
:10008000000201000003040700000000000000005F
:10009000010204081020408001020408102001021F
:1000A0000408102000000000250028002B00040494
:1000B0000404040404040202020202020303030310
:1000C0000303CA062B0911241FBECFEFD8E0DEBF01
:1000D000CDBF11E0A0E0B1E0E0E0F5E102C00590A5
:1000E0000D92A831B107D9F721E0A8E1B1E001C034
:1000F0001D92A93FB207E1F710E0C2E6D0E004C0CC
:100100002197FE010E943B09C136D107C9F70E9421
:100110003D070C94730A0C9400008F929F92AF924B
:10012000BF92CF92DF92EF92FF922091E201309145
:10013000E3018217930708F052C04B01AA24BB24A5
:10014000E82DC52ED62EE72EFF24FC2D342F20912E
:10015000E701222361F0829E40011124E92DC29E15
:1001600060011124FD2D429FD00111243B2FF090FE
:10017000ED01E090EA01A091E801B091E901FE10E3
:1001800008C0AC01440F551F840F951F8A0F9B1F99
:1001900014C0880F991F880F991F8A0F9B1F472F24
:1001A000552766277727DC01AF0DB11D222321F0EB
:1001B000429FA0011124452F4C932091EA01DC01BC
:1001C000A20FB11DEC932091EB01DC01A20FB11D38
:1001D000FC932091EC01FC01E20FF11D3083FF90B4
:1001E000EF90DF90CF90BF90AF909F908F90089549
:1001F000E091B501F091B601309729F01092AC0171
:100200001092AB0109940895CF93DF93AC01E09174
:10021000B301F091B4013097F1F09091AE0180916B
:10022000AD019817C0F090E0292F30E0261737076E
:1002300054F4D901A85EBE4FEA01C20FD31F8881D2
:100240008C939F5FF1CF1092AE016093AD01CB0113
:10025000DF91CF910994DF91CF910895CF92DF92F2
:10026000EF92FF920F931F93CF93DF936C017A016C
:100270008B01C0E0D0E0CE15DF0589F0D8016D918B
:100280008D01D601ED91FC910190F081E02DC60128
:100290000995892B11F47E0102C02196ECCFC7018C
:1002A000DF91CF911F910F91FF90EF90DF90CF9052
:1002B0000895833081F028F4813099F08230A1F0E4
:1002C00008958730A9F08830B9F08430D1F4809156
:1002D00080008F7D03C0809180008F7780938000A5
:1002E000089584B58F7702C084B58F7D84BD08954D
:1002F0008091B0008F7703C08091B0008F7D809394
:10030000B00008951F93CF93DF93282F30E0F901B9
:10031000E458FF4F8491F901E057FF4FD491F90160
:10032000E255FF4FC491CC23C9F0162F81110E94D2
:100330005901EC2FF0E0EE0FFF1FEC55FF4FA59198
:10034000B4918FB7F894111105C09C91ED2FE095F1
:10035000E92302C0EC91ED2BEC938FBFDF91CF919D
:100360001F910895CF93DF9390E0FC01E057FF4F7A
:100370002491FC01E255FF4F8491882361F190E0C4
:10038000880F991FFC01EE58FF4FC591D491FC01D5
:10039000EC55FF4FA591B491611109C09FB7F89436
:1003A0008881209582238883EC912E230BC06230B4
:1003B00061F49FB7F8943881822F809583238883D6
:1003C000EC912E2B2C939FBF06C08FB7F894E88139
:1003D0002E2B28838FBFDF91CF9108958E3008F0A8
:1003E0008E508770806480937C0080917A00806456
:1003F00080937A0080917A0086FDFCCF809178000E
:100400002091790090E0922B08953FB7F894809165
:10041000A4019091A501A091A601B091A70126B5D4
:10042000A89B05C02F3F19F00196A11DB11D3FBF2C
:10043000BA2FA92F982F8827820F911DA11DB11DBA
:10044000BC01CD0143E0660F771F881F991F4A95B5
:10045000D1F708950F931F93CF93DF93CDB7DEB7F6
:1004600029970FB6F894DEBF0FBECDBF8091E8018B
:100470009091E901892B09F47FC10E940502009146
:10048000EE011091EF012091F0013091F101DC01BA
:10049000CB01801B910BA20BB30B8C329140A105B9
:1004A000B10558F3F8948091E4019091E5019A83A5
:1004B0008983A091E801B091E901FD0131968C9109
:1004C00089878091E001A091F201B091F301882326
:1004D00009F417C11B82AB32B10509F058C09BB1BA
:1004E0008091F401982B98879BB1809589238F8305
:1004F0008F818C83898587FF02C088858C8358858E
:100500006F8149853C812B8189819A815BB9262F36
:100510003BB900C046FD252F6BB900C05BB9362F33
:100520002BB900C045FD352F6BB900C05BB9262F34
:100530003BB900C044FD252F6BB900C05BB9362F15
:100540002BB900C043FD352F6BB900C05BB9262F16
:100550003BB900C042FD252F6BB900C05BB9362FF7
:100560002BB900C041FD352F6BB900C05BB9262FF8
:100570003BB900C040FD252F6BB901975BB9362F01
:100580002BB9419147FD352F6BB901F6B6C0A532A5
:10059000B10509F058C095B18091F401982B988766
:1005A00095B1809589238F838F818C83898587FF7F
:1005B00002C088858C8358856F8149853C812B8159
:1005C00089819A8155B9262F35B900C046FD252F5E
:1005D00065B900C055B9362F25B900C045FD352F86
:1005E00065B900C055B9262F35B900C044FD252F87
:1005F00065B900C055B9362F25B900C043FD352F68
:1006000065B900C055B9262F35B900C042FD252F68
:1006100065B900C055B9362F25B900C041FD352F49
:1006200065B900C055B9262F35B900C040FD252F4A
:1006300065B9019755B9362F25B9419147FD352F39
:1006400065B901F65AC0989709F08BC098B18091AE
:10065000F401982B988798B1809589238F838F8197
:100660008C83898587FF02C088858C8358856F813C
:1006700049853C812B8189819A8158B9262F38B9C7
:1006800000C046FD252F68B900C058B9362F28B9DB
:1006900000C045FD352F68B900C058B9262F38B9BC
:1006A00000C044FD252F68B900C058B9362F28B9BD
:1006B00000C043FD352F68B900C058B9262F38B99E
:1006C00000C042FD252F68B900C058B9362F28B99F
:1006D00000C041FD352F68B900C058B9262F38B980
:1006E00000C040FD252F68B9019758B9362F28B9A9
:1006F000419147FD352F68B901F649873C832B832B
:100700002EC09C918091F401982B98879C918095A4
:1007100089238F838F818E8388E08D8358856F81B5
:1007200049853D812E8189819A815C9347FD252FE2
:100730002C93262F3A9531F0441F6C9300C000C0D3
:1007400000C0F3CF6C93000038E04191019769F746
:10075000B093F301A093F20149873D832E839A83DE
:10076000898378940E9405026093EE017093EF01F3
:100770008093F0019093F10129960FB6F894DEBFB3
:100780000FBECDBFDF91CF911F910F9108958F9232
:100790009F92AF92BF92CF92DF92EF92FF926B0146
:1007A0007C010E9405024B015C01C114D104E104EB
:1007B000F104F1F00E940502DC01CB0188199909CE
:1007C000AA09BB09883E9340A105B10570F321E059
:1007D000C21AD108E108F10888EE880E83E0981E5D
:1007E000A11CB11CC114D104E104F10419F7DDCF3F
:1007F000FF90EF90DF90CF90BF90AF909F908F9041
:10080000089585ED8093BC008091BC0084FDFCCFF1
:100810001092AA01089540915801262F30E0240F2C
:10082000311D21323105DCF42091AA012430C9F4B4
:10083000FC0180E090E0861758F430915801219136
:10084000DC01A85CBE4FA30FB11D2C930196F3CF22
:1008500080915801680F6093580180E0089581E00D
:10086000089582E008950895E091AE018091AD0170
:10087000E81730F4F0E0E85EFE4F808190E00895E4
:100880008FEF9FEF08959091AE018091AD01981781
:1008900050F4E92FF0E0E85EFE4F208130E09F5FEA
:1008A0009093AE0102C02FEF3FEFC90108958091F0
:1008B000AD0190E02091AE01821B91090895CF9384
:1008C000DF9300D0CDB7DEB7CB01642F49835A83C5
:1008D0000E940B044981842F5A81952F0F900F900D
:1008E000DF91CF910895CF93DF931F92CDB7DEB7FD
:1008F000698361E0CE0101960E940B0481E090E0E3
:100900000F90DF91CF910895089580E090E00895D1
:10091000CF93DF936091D201C091D30184ED91E038
:100920000E9473046C2F84ED91E00E947304609127
:10093000D001C091D10184ED91E00E9473046C2F2D
:1009400084ED91E00E947304E6E8F0E08491EAE926
:10095000F0E0D491E8EBF0E0C491CC2379F0811180
:100960000E945901EC2FF0E0EE0FFF1FE859FF4FF6
:10097000A591B491EC91ED2361E009F460E084ED80
:1009800091E0DF91CF910C947304049781F08091F2
:10099000AD0190E02091AE01821B91091816190655
:1009A0002CF484ED91E00E944304F1CF089584ED8E
:1009B00091E00E944304992781309105E1F1E4F42C
:1009C000892B09F069C084ED91E00E944304909363
:1009D000CA018093C90184ED91E00E944304909381
:1009E000CC018093CB0184ED91E00E94430490936D
:1009F000CE018093CD0150C082309105A9F10397BB
:100A000009F04AC084ED91E00E9443049093B8013C
:100A10008093B70184ED91E00E9443049093BA0162
:100A20008093B90184ED91E00E9443049093BC014E
:100A30008093BB0131C084ED91E00E944304909308
:100A4000C4018093C30184ED91E00E94430490931C
:100A5000C6018093C50184ED91E00E944304909308
:100A6000C8018093C70118C084ED91E00E9443043F
:100A70009093BE018093BD0184ED91E00E944304F8
:100A80009093C0018093BF0184ED91E00E944304E4
:100A90009093C2018093C10181E08093CF010895BA
:100AA0000E946E0A1F920F920FB60F9211242F937D
:100AB0003F938F939F93AF93BF938091A0019091A9
:100AC000A101A091A201B091A30130919F0126E064
:100AD000230F2D3720F40296A11DB11D05C029E872
:100AE000230F0396A11DB11D20939F018093A001A8
:100AF0009093A101A093A201B093A3018091A401BE
:100B00009091A501A091A601B091A7010196A11D08
:100B1000B11D8093A4019093A501A093A601B09369
:100B2000A701BF91AF919F918F913F912F910F900E
:100B30000FBE0F901F9018951F920F920FB60F9235
:100B400011242F933F934F935F936F937F938F93D2
:100B50009F93AF93BF93EF93FF938091B900887FEA
:100B6000803609F49CC068F5883209F45BC090F4C3
:100B7000803109F454C038F4882309F4F6C0883071
:100B800009F44DC0F6C0883109F44CC0803209F434
:100B90005DC0EFC0803409F468C048F4803309F4C4
:100BA00055C0883309F0E5C080937B01D8C08035FB
:100BB00009F44FC0883509F45DC0883409F0D9C004
:100BC000D6C0883909F4C7C0A8F4883709F467C0CB
:100BD00038F4883609F463C0803709F460C0C9C0AE
:100BE000883809F4B8C0803909F45FC0803809F04A
:100BF000C0C05BC0803B09F486C038F4803A09F479
:100C000066C0883A09F47FC0B4C0803C09F4A7C02C
:100C1000883C09F4A4C0883B09F48AC0AAC080912A
:100C20009E0110C090919D0180919C01981770F5D4
:100C3000E0919D0181E08E0F80939D01F0E0E458EA
:100C4000FE4F80818093BB0085EC86C080937B0142
:100C50008EC0E0919D0181E08E0F80939D01809177
:100C6000BB00F0E0E458FE4F808390919D0180919D
:100C70009C016EC0E0919D0181E08E0F80939D01EB
:100C80008091BB00F0E0E458FE4F80838091A90181
:100C900081116DC081E08093A80184EA61C083E086
:100CA0008093AA0110927A01CFCF80917A0180328D
:100CB00008F051C0E0917A0181E08E0F80937A01B3
:100CC0008091BB00F0E0E65AFE4F8083BDCF85ECFB
:100CD0008093BC001092AA0180917A01803230F496
:100CE000E0917A01F0E0E65AFE4F108260917A01BD
:100CF00070E0E091AF01F091B0018AE591E00995D3
:100D000010927A0136C084E08093AA0110925901B2
:100D100010925801E091B101F091B20109958091D2
:100D20005801811105C081E080935801109238016B
:100D3000E091590181E08E0F80935901F0E0E85C69
:100D4000FE4F80818093BB009091590180915801A2
:100D5000981708F479CF85E88093BC000AC085EC29
:100D60008093BC001092AA0104C010927B010E94E3
:100D70000104FF91EF91BF91AF919F918F917F916E
:100D80006F915F914F913F912F910F900FBE0F90F8
:100D90001F9018951092D7011092D60188EE93E01B
:100DA000A0E0B0E08093D8019093D901A093DA013C
:100DB000B093DB018AE091E09093D5018093D40158
:100DC0001092E1011092E7011092EE011092EF01F2
:100DD0001092F0011092F10181E08093ED01809377
:100DE000EA011092EB0192E09093EC018093E00114
:100DF0008CE090E09093E5018093E4010E9441092A
:100E00009093E9018093E801009761F02CE0FC01E8
:100E100011922A95E9F784E090E09093E3018093A2
:100E2000E20108C01092E5011092E4011092E30182
:100E30001092E20188E08093E6018091E10188232D
:100E400041F061E088E00E94B20160E088E00E9429
:100E50008201E6EBF0E0E491F0E0EE0FFF1FEC55CD
:100E6000FF4F859194919093F3018093F201E8E90B
:100E7000F0E0E491E093F4010895789484B5826001
:100E800084BD84B5816084BD85B5826085BD85B52E
:100E9000816085BD80916E00816080936E001092AC
:100EA0008100809181008260809381008091810027
:100EB00081608093810080918000816080938000B8
:100EC0008091B10084608093B1008091B000816016
:100ED0008093B00080917A00846080937A00809142
:100EE0007A00826080937A0080917A008E7F80936E
:100EF0007A0080917A00806880937A001092C10015
:100F000017B818B8C1E0C4B915B862E08AE00E9409
:100F1000B2018CEB8093BA0088EF90E09093B2011D
:100F20008093B10184E091E09093B0018093AF0190
:100F30001092AE011092AD011092AC011092AB0173
:100F40001092AA01C093A9011092A80161E082E168
:100F50000E94820161E083E10E9482018091B900D8
:100F60008E7F8093B9008091B9008D7F8093B90006
:100F700080E28093B80085E48093BC0085EC94E027
:100F80009093B4018093B30188E894E09093B60104
:100F90008093B5018091E60187FD08C061E00E9461
:100FA000B20160E08091E6010E94820181E08093BD
:100FB000E101C12CD12C7601560199248824BE2D43
:100FC000AD2D9C2D8827882A992AAA2ABB2A8C28ED
:100FD0009D28AE28BF28B501A40180E090E00E94C2
:100FE0008D00B501A40181E090E00E948D00B50163
:100FF000A40182E090E00E948D00B501A40183E08D
:1010000090E00E948D000E942A0261E070E080E082
:1010100090E00E94C7038FEFC81AD80AE80AF80ABE
:1010200084E6C816D104E104F10431F6560199248E
:101030008824BE2DAD2D9C2D8827882A992AAA2A7E
:10104000BB2A8C289D28AE28BF28B501A40180E0CA
:1010500090E00E948D00B501A40181E090E00E9423
:101060008D00B501A40182E090E00E948D00B501E1
:10107000A40183E090E00E948D000E942A0261E0BA
:1010800070E080E090E00E94C70381E0C81AD108B8
:10109000E108F10859F6560199248824BE2DAD2D9A
:1010A0009C2D8827882A992AAA2ABB2A8C289D2821
:1010B000AE28BF28B501A40180E090E00E948D0019
:1010C000B501A40181E090E00E948D00B501A4016A
:1010D00082E090E00E948D00B501A40183E090E0E1
:1010E0000E948D000E942A0261E070E080E090E0A2
:1010F0000E94C7038FEFC81AD80AE80AF80A84E6E4
:10110000C816D104E104F10431F65601992488246B
:10111000BE2DAD2D9C2D8827882A992AAA2ABB2A64
:101120008C289D28AE28BF28B501A40180E090E05E
:101130000E948D00B501A40181E090E00E948D0025
:10114000B501A40182E090E00E948D00B501A401E8
:1011500083E090E00E948D000E942A0261E070E02E
:1011600080E090E00E94C70381E0C81AD108E1083E
:10117000F10859F6C0E0D0E08EE00E94EE019093B5
:10118000D3018093D2018FE00E94EE019093D101B0
:101190008093D0018091CF01882309F450C0109230
:1011A000CF018091C9014091CB0150E060E070E037
:1011B000762F652F542F4427682B8091CD01482B23
:1011C00080E090E00E948D008091C3014091C501B4
:1011D00050E060E070E0762F652F542F4427682B95
:1011E0008091C701482B81E090E00E948D008091A2
:1011F000BD014091BF0150E060E070E0762F652FA7
:10120000542F4427682B8091C101482B82E090E045
:101210000E948D008091B7014091B90150E060E0DB
:1012200070E0762F652F542F4427682B8091BB01E7
:10123000482B83E090E00E948D000E942A0264E126
:1012400070E080E090E00E94C703209709F494CFFB
:101250000E94000091CF8091E8019091E9010097F0
:1012600011F00E94D6098091E60187FD03C060E07D
:101270000C94B2010895EE0FFF1F0590F491E02D3C
:101280000994CF93DF938230910510F482E090E0CF
:10129000E091F701F091F80120E030E0C0E0D0E00B
:1012A000309711F14081518148175907C0F0481714
:1012B000590761F482819381209719F09B838A8377
:1012C0002BC09093F8018093F70126C021153105BA
:1012D00019F04217530718F49A01BE01DF01EF011C
:1012E0000280F381E02DDCCF2115310509F1281BA7
:1012F000390B2430310590F412968D919C911397FF
:101300006115710521F0FB019383828304C09093E2
:10131000F8018093F701FD01329644C0FD01E20F10
:10132000F31F81939193225031092D933C933AC03E
:101330002091F5013091F601232B41F42091020117
:10134000309103013093F6012093F50120910001C3
:10135000309101012115310541F42DB73EB740917F
:10136000040150910501241B350BE091F501F0912A
:10137000F601E217F307A0F42E1B3F0B28173907DD
:1013800078F0AC014E5F5F4F2417350748F04E0FE1
:101390005F1F5093F6014093F5018193919302C032
:1013A000E0E0F0E0CF01DF91CF9108950F931F931C
:1013B000CF93DF93009709F48CC0FC01329713821E
:1013C00012820091F7011091F8010115110581F4C5
:1013D00020813181820F931F2091F5013091F60118
:1013E0002817390779F5F093F601E093F50171C0FC
:1013F000D80140E050E0AE17BF0750F412962D918F
:101400003C911397AD012115310509F1D901F3CFB5
:101410009D01DA013383228360817181860F971FDA
:101420008217930769F4EC0128813981260F371F51
:101430002E5F3F4F318320838A819B8193838283F8
:10144000452B29F4F093F801E093F70142C013967D
:10145000FC93EE931297ED01499159919E01240F4F
:10146000351FE217F30771F480819181840F951F76
:10147000029611969C938E938281938113969C93EE
:101480008E931297E0E0F0E0D80112968D919C9136
:101490001397009719F0F8018C01F6CF8D919C916C
:1014A00098012E5F3F4F820F931F2091F5013091DD
:1014B000F6012817390769F4309729F41092F801DA
:1014C0001092F70102C0138212821093F60100936A
:1014D000F501DF91CF911F910F91089581E090E088
:1014E000F8940C94730A10E0C2E6D0E004C0FE0148
:1014F0000E943B092196C336D107C9F7F894FFCF64
:101500000000F90180000000000073045F048504FE
:081510003304570443043404C2
:00000001FF
