:200000000C945E000C9486000C9486000C9486000C9486000C9486000C9486000C948600D8
:200020000C9486000C9486000C9486000C9486000C9486000C9486000C9486000C94860090
:200040000C94ED040C9486000C9486000C9486000C9486000C9486000C9486000C94860005
:200060000C9437050C94860000000000240027002A000000000800020100000304070000F0
:200080000000000000000102040810204080010204081020010204081020000000002500BE
:2000A00028002B0004040404040404040202020202020303030303036506B90811241FBE71
:2000C000CFEFD8E0DEBFCDBF11E0A0E0B1E0ECE1F4E102C005900D92A831B107D9F721E085
:2000E000A8E1B1E001C01D92A73FB207E1F710E0CDE5D0E004C02197FE010E94C908CC35BE
:20010000D107C9F70E94D8060C94010A0C9400008F929F92AF92BF92CF92DF92EF92FF92B4
:200120002091E0013091E1018217930708F052C04B01AA24BB24E82DC52ED62EE72EFF2410
:20014000FC2D342F2091E501222361F0829E40011124E92DC29E60011124FD2D429FD00168
:2001600011243B2FF090EB01E090E801A091E601B091E701FE1008C0AC01440F551F840FFD
:20018000951F8A0F9B1F14C0880F991F880F991F8A0F9B1F472F552766277727DC01AF0DDD
:2001A000B11D222321F0429FA0011124452F4C932091E801DC01A20FB11DEC932091E90101
:2001C000DC01A20FB11DFC932091EA01FC01E20FF11D3083FF90EF90DF90CF90BF90AF907F
:2001E0009F908F900895E091B501F091B601309729F01092AC011092AB0109940895CF939C
:20020000DF93AC01E091B301F091B4013097F1F09091AE018091AD019817C0F090E0292F06
:2002200030E02617370754F4D901A85EBE4FEA01C20FD31F88818C939F5FF1CF1092AE0119
:200240006093AD01CB01DF91CF910994DF91CF910895CF92DF92EF92FF920F931F93CF93BD
:20026000DF936C017A018B01C0E0D0E0CE15DF0589F0D8016D918D01D601ED91FC91019030
:20028000F081E02DC6010995892B11F47E0102C02196ECCFC701DF91CF911F910F91FF9098
:2002A000EF90DF90CF90089590E0FC01EE58FF4F3491FC01EA57FF4F2491FC01EC55FF4FC1
:2002C000E491EE2309F43BC0332339F1333091F038F43130A9F0323001F584B58F7D12C0A7
:2002E000373091F03830A1F03430B9F4809180008F7D03C0809180008F77809380000DC0B5
:2003000084B58F7784BD09C08091B0008F7703C08091B0008F7D8093B000F0E0EE0FFF1F8F
:20032000E656FF4FA591B4918FB7F894EC91611103C020952E2301C02E2B2C938FBF08956A
:20034000CF93DF9390E0FC01EA57FF4F2491FC01EC55FF4F8491882361F190E0880F991FBB
:20036000FC01E859FF4FC591D491FC01E656FF4FA591B491611109C09FB7F8948881209559
:2003800082238883EC912E230BC0623061F49FB7F8943881822F809583238883EC912E2B45
:2003A0002C939FBF06C08FB7F894E8812E2B28838FBFDF91CF9108958E3008F08E508770D5
:2003C000806480937C0080917A00806480937A0080917A0086FDFCCF809178002091790022
:2003E00090E0922B08953FB7F8948091A4019091A501A091A601B091A70126B5A89B05C090
:200400002F3F19F00196A11DB11D3FBFBA2FA92F982F8827820F911DA11DB11DBC01CD01B7
:2004200043E0660F771F881F991F4A95D1F70895CF92DF92EF92FF920E94F3016B017C0188
:200440000E94F301DC01CB018C199D09AE09BF09883E9340A105B10598F3FF90EF90DF9096
:20046000CF9008950F931F93CF93DF93CDB7DEB729970FB6F894DEBF0FBECDBF8091E60140
:200480009091E701892B09F47FC10E94F3010091EC011091ED012091EE013091EF01DC0191
:2004A000CB01801B910BA20BB30B8C329140A105B10558F3F8948091E2019091E3019A83F6
:2004C0008983A091E601B091E701FD0131968C9189878091DE01A091F001B091F1018823ED
:2004E00009F417C11B82AB32B10509F058C09BB18091F201982B98879BB1809589238F8395
:200500008F818C83898587FF02C088858C8358856F8149853C812B8189819A815BB9262FB8
:200520003BB900C046FD252F6BB900C05BB9362F2BB900C045FD352F6BB900C05BB9262F7C
:200540003BB900C044FD252F6BB900C05BB9362F2BB900C043FD352F6BB900C05BB9262F60
:200560003BB900C042FD252F6BB900C05BB9362F2BB900C041FD352F6BB900C05BB9262F44
:200580003BB900C040FD252F6BB901975BB9362F2BB9419147FD352F6BB901F6B6C0A5321B
:2005A000B10509F058C095B18091F201982B988795B1809589238F838F818C83898587FF7C
:2005C00002C088858C8358856F8149853C812B8189819A8155B9262F35B900C046FD252F6C
:2005E00065B900C055B9362F25B900C045FD352F65B900C055B9262F35B900C044FD252FE2
:2006000065B900C055B9362F25B900C043FD352F65B900C055B9262F35B900C042FD252FC5
:2006200065B900C055B9362F25B900C041FD352F65B900C055B9262F35B900C040FD252FA9
:2006400065B9019755B9362F25B9419147FD352F65B901F65AC0989709F08BC098B180911D
:20066000F201982B988798B1809589238F838F818C83898587FF02C088858C8358856F812B
:2006800049853C812B8189819A8158B9262F38B900C046FD252F68B900C058B9362F28B918
:2006A00000C045FD352F68B900C058B9262F38B900C044FD252F68B900C058B9362F28B90F
:2006C00000C043FD352F68B900C058B9262F38B900C042FD252F68B900C058B9362F28B9F3
:2006E00000C041FD352F68B900C058B9262F38B900C040FD252F68B9019758B9362F28B9FF
:20070000419147FD352F68B901F649873C832B832EC09C918091F201982B98879C918095C7
:2007200089238F838F818E8388E08D8358856F8149853D812E8189819A815C9347FD252FAE
:200740002C93262F3A9531F0441F6C9300C000C000C0F3CF6C93000038E04191019769F750
:20076000B093F101A093F00149873D832E839A83898378940E94F3016093EC017093ED0143
:200780008093EE019093EF0129960FB6F894DEBF0FBECDBFDF91CF911F910F91089585ED0F
:2007A0008093BC008091BC0084FDFCCF1092AA01089540915801262F30E0240F311D213204
:2007C0003105DCF42091AA012430C9F4FC0180E090E0861758F4309158012191DC01A85C43
:2007E000BE4FA30FB11D2C930196F3CF80915801680F6093580180E0089581E0089582E0CA
:2008000008950895E091AE018091AD01E81730F4F0E0E85EFE4F808190E008958FEF9FEF1F
:2008200008959091AE018091AD01981750F4E92FF0E0E85EFE4F208130E09F5F9093AE019D
:2008400002C02FEF3FEFC90108958091AD0190E02091AE01821B91090895CF93DF9300D01C
:20086000CDB7DEB7CB01642F49835A830E94D9034981842F5A81952F0F900F90DF91CF91AF
:200880000895CF93DF931F92CDB7DEB7698361E0CE0101960E94D90381E090E00F90DF912C
:2008A000CF9108956091D10182ED91E00E9441046091D00182ED91E00C944104089580E02D
:2008C00090E00895049781F08091AD0190E02091AE01821B9109181619062CF482ED91E0EC
:2008E0000E941104F1CF089582ED91E00E94110499278130910521F11CF4892B41F00895A2
:2009000082309105B1F1039709F44CC0089582ED91E00E9411049093CA018093C90182EDDC
:2009200091E00E9411049093CC018093CB0182ED91E00E9411049093CE018093CD010895B9
:2009400082ED91E00E9411049093C4018093C30182ED91E00E9411049093C6018093C501E7
:2009600082ED91E00E9411049093C8018093C701089582ED91E00E9411049093BE018093F0
:20098000BD0182ED91E00E9411049093C0018093BF0182ED91E00E9411049093C2018093BB
:2009A000C101089582ED91E00E9411049093B8018093B70182ED91E00E9411049093BA0125
:2009C0008093B90182ED91E00E9411049093BC018093BB0108950E94FC091F920F920FB6A9
:2009E0000F9211242F933F938F939F93AF93BF938091A0019091A101A091A201B091A30177
:200A000030919F0126E0230F2D3720F40296A11DB11D05C029E8230F0396A11DB11D2093C1
:200A20009F018093A0019093A101A093A201B093A3018091A4019091A501A091A601B0914A
:200A4000A7010196A11DB11D8093A4019093A501A093A601B093A701BF91AF919F918F91A5
:200A60003F912F910F900FBE0F901F9018951F920F920FB60F9211242F933F934F935F932A
:200A80006F937F938F939F93AF93BF93EF93FF938091B900887F803609F49CC068F588324F
:200AA00009F45BC090F4803109F454C038F4882309F4F6C0883009F44DC0F6C0883109F420
:200AC0004CC0803209F45DC0EFC0803409F468C048F4803309F455C0883309F0E5C0809349
:200AE0007B01D8C0803509F44FC0883509F45DC0883409F0D9C0D6C0883909F4C7C0A8F485
:200B0000883709F467C038F4883609F463C0803709F460C0C9C0883809F4B8C0803909F4A0
:200B20005FC0803809F0C0C05BC0803B09F486C038F4803A09F466C0883A09F47FC0B4C0D1
:200B4000803C09F4A7C0883C09F4A4C0883B09F48AC0AAC080919E0110C090919D0180918C
:200B60009C01981770F5E0919D0181E08E0F80939D01F0E0E458FE4F80818093BB0085EC6D
:200B800086C080937B018EC0E0919D0181E08E0F80939D018091BB00F0E0E458FE4F80834C
:200BA00090919D0180919C016EC0E0919D0181E08E0F80939D018091BB00F0E0E458FE4FB7
:200BC00080838091A90181116DC081E08093A80184EA61C083E08093AA0110927A01CFCF10
:200BE00080917A01803208F051C0E0917A0181E08E0F80937A018091BB00F0E0E65AFE4F0D
:200C00008083BDCF85EC8093BC001092AA0180917A01803230F4E0917A01F0E0E65AFE4F0D
:200C2000108260917A0170E0E091AF01F091B0018AE591E0099510927A0136C084E080930B
:200C4000AA011092590110925801E091B101F091B201099580915801811105C081E08093C8
:200C6000580110923801E091590181E08E0F80935901F0E0E85CFE4F80818093BB009091B9
:200C8000590180915801981708F479CF85E88093BC000AC085EC8093BC001092AA0104C046
:200CA00010927B010E94CF03FF91EF91BF91AF919F918F917F916F915F914F913F912F9142
:200CC0000F900FBE0F901F9018951092D5011092D40188EE93E0A0E0B0E08093D6019093B8
:200CE000D701A093D801B093D9018AE091E09093D3018093D2011092DF011092E50110928F
:200D0000EC011092ED011092EE011092EF0181E08093EB018093E8011092E90192E09093B6
:200D2000EA018093DE018CE090E09093E3018093E2010E94CF089093E7018093E6010097E8
:200D400061F02CE0FC0111922A95E9F784E090E09093E1018093E00108C01092E30110923A
:200D6000E2011092E1011092E00188E08093E4018091DF01882341F061E088E00E94A00170
:200D800060E088E00E945401ECEAF0E0E491F0E0EE0FFF1FE656FF4F859194919093F101D4
:200DA0008093F001EEE8F0E0E491E093F2010895789484B5826084BD84B5816084BD85B514
:200DC000826085BD85B5816085BD80916E00816080936E0010928100809181008260809307
:200DE000810080918100816080938100809180008160809380008091B10084608093B100FC
:200E00008091B00081608093B00080917A00846080937A0080917A00826080937A00809166
:200E20007A008E7F80937A0080917A00806880937A001092C10017B818B881E084B915B831
:200E400090E19093BA0023EF30E03093B2012093B1012FEF30E03093B0012093AF011092A0
:200E6000AE011092AD011092AC011092AB011092AA018093A9011092A80161E082E10E943B
:200E8000540161E083E10E9454018091B9008E7F8093B9008091B9008D7F8093B90080E2BA
:200EA0008093B80085E48093BC0082E694E09093B4018093B30182E594E09093B6018093EC
:200EC000B5018091E40187FD08C061E00E94A00160E08091E4010E94540181E08093DF0115
:200EE000C12CD12C7601560199248824BE2DAD2D9C2D8827882A992AAA2ABB2A8C289D28ED
:200F0000AE28BF28B501A40180E090E00E948800B501A40181E090E00E948800B501A4010E
:200F200082E090E00E948800B501A40183E090E00E9488000E9432020E9418022FEFC21AD1
:200F4000D20AE20AF20A84E6C816D104E104F10451F6560199248824BE2DAD2D9C2D882792
:200F6000882A992AAA2ABB2A8C289D28AE28BF28B501A40180E090E00E948800B501A4015D
:200F800081E090E00E948800B501A40182E090E00E948800B501A40183E090E00E948800A7
:200FA0000E9432020E94180221E0C21AD108E108F10879F6560199248824BE2DAD2D9C2D4A
:200FC0008827882A992AAA2ABB2A8C289D28AE28BF28B501A40180E090E00E948800B501F3
:200FE000A40181E090E00E948800B501A40182E090E00E948800B501A40183E090E00E942A
:2010000088000E9432020E9418028FEFC81AD80AE80AF80A24E6C216D104E104F10451F6A8
:20102000560199248824BE2DAD2D9C2D8827882A992AAA2ABB2A8C289D28AE28BF28B50199
:20104000A40180E090E00E948800B501A40181E090E00E948800B501A40182E090E00E94CC
:201060008800B501A40183E090E00E9488000E9432020E94180281E0C81AD108E108F10800
:2010800079F6C0E0D0E01A9902C0299801C0299A8EE00E94DC0197FD03967C01F594E7943C
:2010A000F594E794E092D1018FE00E94DC0197FD039695958795959587958093D00120E15C
:2010C000E29E800D11248093CF018091C9014091CB0150E060E070E0762F652F542F44278C
:2010E000682B8091CD01482B80E090E00E9488008091C3014091C50150E060E070E0762F40
:20110000652F542F4427682B8091C701482B81E090E00E9488008091BD014091BF0150E0E3
:2011200060E070E0762F652F542F4427682B8091C101482B82E090E00E9488008091B7015A
:201140004091B90150E060E070E0762F652F542F4427682B8091BB01482B83E090E00E94D5
:2011600088000E943202209709F48DCF0E9400008ACF8091E6019091E701009711F00E94CB
:2011800064098091E40187FD03C060E00C94A0010895EE0FFF1F0590F491E02D0994CF9346
:2011A000DF938230910510F482E090E0E091F501F091F60120E030E0C0E0D0E0309711F197
:2011C0004081518148175907C0F04817590761F482819381209719F09B838A832BC09093E9
:2011E000F6018093F50126C02115310519F04217530718F49A01BE01DF01EF010280F381B5
:20120000E02DDCCF2115310509F1281B390B2430310590F412968D919C9113976115710592
:2012200021F0FB019383828304C09093F6018093F501FD01329644C0FD01E20FF31F8193C0
:201240009193225031092D933C933AC02091F3013091F401232B41F42091020130910301DE
:201260003093F4012093F30120910001309101012115310541F42DB73EB740910401509169
:201280000501241B350BE091F301F091F401E217F307A0F42E1B3F0B2817390778F0AC0140
:2012A0004E5F5F4F2417350748F04E0F5F1F5093F4014093F3018193919302C0E0E0F0E020
:2012C000CF01DF91CF9108950F931F93CF93DF93009709F48CC0FC01329713821282009149
:2012E000F5011091F6010115110581F420813181820F931F2091F3013091F401281739074F
:2013000079F5F093F401E093F30171C0D80140E050E0AE17BF0750F412962D913C9113977A
:20132000AD012115310509F1D901F3CF9D01DA013383228360817181860F971F82179307D8
:2013400069F4EC0128813981260F371F2E5F3F4F318320838A819B8193838283452B29F414
:20136000F093F601E093F50142C01396FC93EE931297ED01499159919E01240F351FE21755
:20138000F30771F480819181840F951F029611969C938E938281938113969C938E9312974C
:2013A000E0E0F0E0D80112968D919C911397009719F0F8018C01F6CF8D919C9198012E5FCB
:2013C0003F4F820F931F2091F3013091F4012817390769F4309729F41092F6011092F501F0
:2013E00002C0138212821093F4010093F301DF91CF911F910F91089581E090E0F8940C9429
:20140000010A10E0CDE5D0E004C0FE010E94C9082196CE35D107C9F7F894FFCF0000F70195
:1414200080000000000041042D045F04010425041104020416
:00000001FF
