:100000000C945D000C9485000C9485000C94850084
:100010000C9485000C9485000C9485000C9485004C
:100020000C9485000C9485000C9485000C94B90404
:100030000C9485000C9485000C9485000C9485002C
:100040000C9441030C9485000C9485000C9485005D
:100050000C9485000C9485000C9485000C9485000C
:100060000C948B030C9485000000000024002700F2
:100070002A0000000000250028002B0004040404CE
:100080000404040402020202020203030303030342
:10009000010204081020408001020408102001021F
:1000A00004081020000000080002010000030407FB
:1000B00000000000000000007A0511241FBECFEFF1
:1000C000D8E0DEBFCDBF11E0A0E0B1E0E6EFFDE09B
:1000D00002C005900D92A231B107D9F722E0A2E14A
:1000E000B1E001C01D92A730B207E1F710E0CDE505
:1000F000D0E004C02197FE010E94EE06CC35D10766
:10010000C9F70E94B1050C94F9060C940000CF9237
:10011000DF92EF92FF920F931F93CF93DF936C01C7
:100120007A018B01C0E0D0E0CE15DF0589F0D8015F
:100130006D918D01D601ED91FC910190F081E02D42
:10014000C6010995892B11F47E0102C02196ECCFDE
:10015000C701DF91CF911F910F91FF90EF90DF903A
:10016000CF900895E0913301F0913401309729F058
:100170001092A00110929F0109940895CF93DF93EC
:10018000AC01E091A701F091A8013097F1F09091B6
:10019000A2018091A1019817C0F090E0292F30E0D2
:1001A0002617370754F4D901AD5EBE4FEA01C20FDE
:1001B000D31F88818C939F5FF1CF1092A20160932F
:1001C000A101CB01DF91CF910994DF91CF910895E7
:1001D00090E0FC01EC55FF4F3491FC01E057FF4FDC
:1001E0002491FC01E458FF4FE491EE2309F43BC055
:1001F000332339F1333091F038F43130A9F0323013
:1002000001F584B58F7D12C0373091F03830A1F000
:100210003430B9F4809180008F7D03C080918000DC
:100220008F77809380000DC084B58F7784BD09C01F
:100230008091B0008F7703C08091B0008F7D809354
:10024000B000F0E0EE0FFF1FEE58FF4FA591B49104
:100250008FB7F894EC91611103C020952E2301C053
:100260002E2B2C938FBF089585ED8093BC00809139
:10027000BC0084FDFCCF10929E0108954091550171
:10028000262F30E0240F311D21323105DCF420917E
:100290009E012430C9F4FC0180E090E0861758F4F8
:1002A000309155012191DC01AB5CBE4FA30FB11D14
:1002B0002C930196F3CF80915501680F60935501FF
:1002C00080E0089581E0089582E008950895E09126
:1002D000A2018091A101E81730F4F0E0ED5EFE4F3D
:1002E000808190E008958FEF9FEF08959091A20193
:1002F0008091A101981750F4E92FF0E0ED5EFE4FD8
:10030000208130E09F5F9093A20102C02FEF3FEF6A
:10031000C90108958091A10190E02091A201821B62
:1003200091090895CF93DF9300D0CDB7DEB7CB010D
:10033000642F49835A830E943E014981842F5A8148
:10034000952F0F900F90DF91CF910895CF93DF936A
:100350001F92CDB7DEB7698361E0CE0101960E949E
:100360003E0181E090E00F90DF91CF9108950895D4
:1003700080E090E00895FC0190819C3080F58181BF
:1003800028E830E0281B310987FD3395220F331F01
:10039000220F331F621773077CF0828128E532E059
:1003A000281B310987FD3395220F331F220F331F7E
:1003B000621773070CF49B0122503109220F331F7F
:1003C0004FB7F894892F90E0FC01EE0FFF1F8E0FBE
:1003D0009F1FFC01E254FE4F328321834FBF0895DB
:1003E000CF93DF93DC018C918C3008F06DC09B01C2
:1003F0003327F901E057FF4F8491F901E458FF4F8B
:100400002491222399F030E0220F331FF901E8599B
:10041000FF4FC591D491F901EE58FF4F25913491CA
:100420009FB7F894E881E82BE8839FBF8C91E82F71
:10043000F0E09F01220F331FE20FF31FE254FE4F43
:100440006F739081907C692B608311961C92119739
:1004500012961C9212976CE00E94E2069CE0899F23
:10046000B001112440E050E09A01260F371FF90136
:10047000EE0FFF1F2E0F3F1FF901E254FE4F908138
:1004800096FD16C04F5F5F4F4C30510569F78111E3
:100490000FC01092800082E080938100109285004E
:1004A00010928400B19A80916F00826080936F00F7
:1004B000EC91F0E0CF01880F991FE80FF91FE2548B
:1004C000FE4F8081806480838C91DF91CF9108956D
:1004D0004F925F926F927F928F929F92AF92BF9254
:1004E000CF92DF92EF92FF920F931F93CF93DF9300
:1004F0008C010297029708F0A2C0F8E8CF2ED12C09
:10050000A8E5EA2EA2E0FA2EB4EB8B2E912CA12CBA
:10051000B12CC091A101D0E08091A2019E01281BC5
:100520003109C901181619060CF07BC082EB91E065
:100530000E947601482F807F4F70742E2BE0241785
:1005400008F46FC081111CC00330110509F069C0A7
:1005500082EB91E00E947601C82F82EB91E00E942D
:100560007601982F8827BC016C0F711D472D50E034
:10057000CA01880F991F840F951F8D519E4F4EC041
:10058000803139F60230110509F04BC082EB91E061
:100590000E947601472D50E0EA01CC0FDD1FFE01DD
:1005A000E40FF51FED51FE4F91812601491A5108C4
:1005B00097FD5394440C551C440C551C052C000C01
:1005C00066087708A82FB0E0A53BB10514F0A4EBAE
:1005D000B0E0C40FD51FCD51DE4F8A819701281B93
:1005E000310987FD3395220F331F220F331FA901D5
:1005F000330F660B770B9A01AB01241935094609B5
:1006000057090E94A906A50194010E947F06CA010C
:10061000B901640D751D861D971DCE010E94BB0199
:1006200078CF8091A2019E01281B3109C9011816BB
:100630001906A4F482EB91E00E947601F2CF80913A
:10064000A10190E02091A201821B910918161906C0
:100650002CF482EB91E00E947601F1CFDF91CF91F3
:100660001F910F91FF90EF90DF90CF90BF90AF90D0
:100670009F908F907F906F905F904F9008950E9411
:10068000F4061F920F920FB60F9211242F933F93EF
:100690008F939F93AF93BF938091AE019091AF01E1
:1006A000A091B001B091B1013091AD0123E0230FD1
:1006B0002D3720F40196A11DB11D05C026E8230F9A
:1006C0000296A11DB11D2093AD018093AE019093C0
:1006D000AF01A093B001B093B1018091A9019091B5
:1006E000AA01A091AB01B091AC010196A11DB11D71
:1006F0008093A9019093AA01A093AB01B093AC01A0
:10070000BF91AF919F918F913F912F910F900FBE0D
:100710000F901F9018951F920F920FB60F921124F1
:100720002F933F934F935F936F937F938F939F93F9
:10073000AF93BF93EF93FF938091B900887F80368A
:1007400009F49CC068F5883209F45BC090F48031EC
:1007500009F454C038F4882309F4F6C0883009F449
:100760004DC0F6C0883109F44CC0803209F45DC038
:10077000EFC0803409F468C048F4803309F455C0F0
:10078000883309F0E5C080937801D8C0803509F43A
:100790004FC0883509F45DC0883409F0D9C0D6C08F
:1007A000883909F4C7C0A8F4883709F467C038F459
:1007B000883609F463C0803709F460C0C9C088383E
:1007C00009F4B8C0803909F45FC0803809F0C0C0AE
:1007D0005BC0803B09F486C038F4803A09F466C0F7
:1007E000883A09F47FC0B4C0803C09F4A7C0883CB3
:1007F00009F4A4C0883B09F48AC0AAC080919B0177
:1008000010C090919A0180919901981770F5E0912C
:100810009A0181E08E0F80939A01F0E0E758FE4F35
:1008200080818093BB0085EC86C0809378018EC068
:10083000E0919A0181E08E0F80939A018091BB0034
:10084000F0E0E758FE4F808390919A0180919901E2
:100850006EC0E0919A0181E08E0F80939A018091A1
:10086000BB00F0E0E758FE4F808380919D0181112D
:100870006DC081E080939C0184EA61C083E0809335
:100880009E0110927701CFCF80917701803208F0DE
:1008900051C0E091770181E08E0F809377018091C4
:1008A000BB00F0E0E95AFE4F8083BDCF85EC80931A
:1008B000BC0010929E0180917701803230F4E0916B
:1008C0007701F0E0E95AFE4F10826091770170E005
:1008D000E091A301F091A40187E591E009951092C0
:1008E000770136C084E080939E01109256011092E9
:1008F0005501E091A501F091A6010995809155015E
:10090000811105C081E08093550110923501E0917D
:10091000560181E08E0F80935601F0E0EB5CFE4FB4
:1009200080818093BB00909156018091550198176A
:1009300008F479CF85E88093BC000AC085EC8093E9
:10094000BC0010929E0104C0109278010E943401F4
:10095000FF91EF91BF91AF919F918F917F916F9197
:100960005F914F913F912F910F900FBE0F901F906D
:1009700018951F920F920FB60F9211242F933F9349
:100980004F935F936F937F938F939F93AF93BF9397
:10099000EF93FF938091120187FF05C010928500AD
:1009A000109284001BC020911201022E000C330B08
:1009B0008091E20190E02817390784F480911201B8
:1009C000082E000C990BFC01EE0FFF1F8E0F9F1FCE
:1009D000FC01E254FE4F808186FD15C0809112011A
:1009E0008F5F8093120120911201022E000C330BB5
:1009F0008091E20190E028173907C4F48091120138
:100A00008C3064F113C080911201082E000C990BF8
:100A1000FC01EE0FFF1F8E0F9F1FFC01E254FE4FE3
:100A2000808160E08F730E94E800D8CF80918400BD
:100A300090918500049680349C4918F480E49CE9E8
:100A400005C0809184009091850004969093890060
:100A5000809388008FEF809312013BC02091840027
:100A60003091850080911201082E000C990BFC0139
:100A7000EE0FFF1F8E0F9F1FFC01E254FE4F81817E
:100A80009281820F931F90938900809388008091B8
:100A90001201082E000C990BFC01EE0FFF1F8E0FA8
:100AA0009F1FFC01E254FE4F808186FF12C080919F
:100AB0001201082E000C990BFC01EE0FFF1F8E0F88
:100AC0009F1FFC01E254FE4F808161E08F730E9402
:100AD000E800FF91EF91BF91AF919F918F917F912E
:100AE0006F915F914F913F912F910F900FBE0F909B
:100AF0001F9018951092B5011092B40188EE93E002
:100B0000A0E0B0E08093B6019093B701A093B80144
:100B1000B093B90184E091E09093B3018093B20166
:100B20008091E201A3EEB1E09FEF48EB5BE08C30F7
:100B300078F48C93282F30E0F901EE0FFF1F2E0F71
:100B40003F1FF901E254FE4F528341838F5F01C082
:100B50009C93139622E0A730B20749F78093E201F5
:100B60000895789484B5826084BD84B5816084BD25
:100B700085B5826085BD85B5816085BD80916E003B
:100B8000816080936E00109281008091810082606C
:100B900080938100809181008160809381008091A9
:100BA00080008160809380008091B1008460809398
:100BB000B1008091B00081608093B00080917A0094
:100BC000846080937A0080917A00826080937A00BA
:100BD00080917A00816080937A0080917A008068A9
:100BE00080937A001092C10060E070E083EE91E0A3
:100BF0000E94F00161E070E086EE91E00E94F00159
:100C000062E070E089EE91E00E94F00163E070E044
:100C10008CEE91E00E94F00164E070E08FEE91E0D4
:100C20000E94F00165E070E082EF91E00E94F00127
:100C300066E070E085EF91E00E94F00167E070E00F
:100C400088EF91E00E94F0016EE070E08BEF91E0A0
:100C50000E94F0016FE070E08EEF91E00E94F001E1
:100C600060E170E081E092E00E94F00161E170E0FB
:100C700084E092E00E94F00186EA8093BA0082EB61
:100C800090E09093A6018093A5018EEB90E0909365
:100C9000A4018093A3011092A2011092A1011092CD
:100CA000A00110929F0110929E0181E080939D010E
:100CB00010929C0161E082E10E94E80061E083E122
:100CC0000E94E8008091B9008E7F8093B9008091E6
:100CD000B9008D7F8093B90088E48093B80085E4E3
:100CE0008093BC0088E692E09093A8018093A701CE
:100CF000C0E0D0E02097F1F30E940000FBCF052E6A
:100D000097FB1EF400940E94960657FD07D00E94A0
:100D1000B10607FC03D04EF40C949606509540950E
:100D2000309521953F4F4F4F5F4F08959095809597
:100D3000709561957F4F8F4F9F4F08950E94D30606
:100D4000A59F900DB49F900DA49F800D911D11241F
:100D50000895B7FF0C949E060E949E06821B930B7B
:100D60000895A1E21A2EAA1BBB1BFD010DC0AA1FEC
:100D7000BB1FEE1FFF1FA217B307E407F50720F004
:100D8000A21BB30BE40BF50B661F771F881F991F7F
:100D90001A9469F760957095809590959B01AC01C8
:100DA000BD01CF010895A29FB001B39FC001A39FD1
:100DB000700D811D1124911DB29F700D811D112494
:100DC000911D0895991B79E004C0991F961708F0AA
:100DD000961B881F7A95C9F780950895EE0FFF1F1F
:100DE0000590F491E02D099481E090E0F8940C9442
:060DF000F906F894FFCFA4
:100DF60000000000A6019201B80166018A01760191
:020E0600670182
:107800000C94343C0C94513C0C94513C0C94513CE1
:107810000C94513C0C94513C0C94513C0C94513CB4
:107820000C94513C0C94513C0C94513C0C94513CA4
:107830000C94513C0C94513C0C94513C0C94513C94
:107840000C94513C0C94513C0C94513C0C94513C84
:107850000C94513C0C94513C0C94513C0C94513C74
:107860000C94513C0C94513C11241FBECFEFD8E036
:10787000DEBFCDBF11E0A0E0B1E0ECE9FFE702C060
:1078800005900D92A230B107D9F712E0A2E0B1E065
:1078900001C01D92AD30B107E1F70E942D3D0C945F
:1078A000CC3F0C94003C982F959595959595959582
:1078B000905D8F708A307CF0282F295A8091C0000B
:1078C00085FFFCCF9093C6008091C00085FFFCCF60
:1078D0002093C6000895282F205DF0CF982F809127
:1078E000C00085FFFCCF9093C6000895EF92FF92F1
:1078F0000F931F93EE24FF2487018091C00087FD22
:1079000017C00894E11CF11C011D111D81E4E8164B
:1079100082E4F8068FE0080780E0180770F3E09132
:107920000401F091050109958091C00087FFE9CF1E
:107930008091C6001F910F91FF90EF9008950E94D3
:10794000763C982F8091C00085FFFCCF9093C600B5
:1079500091362CF490330CF09053892F089597555D
:10796000892F08951F930E949F3C182F0E949F3CCF
:107970001295107F810F1F9108951F93182F882350
:1079800021F00E94763C1150E1F71F9108951F935A
:10799000182F0E94763C803249F0809103018F5F5E
:1079A000809303018530C1F01F9108958091C0003C
:1079B00085FFFCCF84E18093C6008091C00085FFE5
:1079C000FCCF1093C6008091C00085FFFCCF80E102
:1079D0008093C6001F910895E0910401F091050184
:1079E00009951F9108950E94763C803241F0809164
:1079F00003018F5F80930301853081F008958091AA
:107A0000C00085FFFCCF84E18093C6008091C00058
:107A100085FFFCCF80E18093C6000895E0910401CA
:107A2000F09105010995089540E951E08823A1F0FE
:107A30002D9A28EE33E0FA013197F1F721503040CA
:107A4000D1F72D9828EE33E0FA013197F1F7215064
:107A50003040D1F7815061F708953F924F925F9285
:107A60006F927F928F929F92AF92BF92CF92DF924E
:107A7000EF92FF920F931F93CF93DF93000080E16B
:107A80008093C4001092C50088E18093C10086E015
:107A90008093C2005098589A259A81E00E94143D24
:107AA00024E1F22E9EE1E92E85E9D82E0FE0C02ECA
:107AB00010E1B12EAA24A394B1E49B2EA6E58A2E50
:107AC000F2E57F2EE0E26E2E79E4572E63E5462E36
:107AD00050E5352E0E94763C8033B1F18133B9F107
:107AE000803409F46FC0813409F476C0823409F41B
:107AF00085C0853409F488C0803531F1823521F1A3
:107B0000813511F1853509F485C0863509F48DC0BC
:107B1000843609F496C0843709F403C1853709F423
:107B200072C1863709F466C0809103018F5F80932C
:107B30000301853079F6E0910401F0910501099582
:107B40000E94763C803351F60E94F33CC3CF0E94E2
:107B5000763C803249F78091C00085FFFCCFF092DF
:107B6000C6008091C00085FFFCCF9092C600809136
:107B7000C00085FFFCCF8092C6008091C00085FFC9
:107B8000FCCF7092C6008091C00085FFFCCF609250
:107B9000C6008091C00085FFFCCF5092C600809146
:107BA000C00085FFFCCF4092C6008091C00085FFD9
:107BB000FCCF3092C6008091C00085FFFCCFB09210
:107BC000C60088CF0E94763C863808F4BDCF0E945C
:107BD000763C0E94F33C7ECF0E94763C803809F4CC
:107BE0009CC0813809F40BC1823809F43CC1883942
:107BF00009F48FC080E00E94C73C6CCF84E10E94F2
:107C0000BD3C0E94F33C66CF85E00E94BD3C0E94D3
:107C1000F33C60CF0E94763C809306010E94763C44
:107C2000809307010E94F33C55CF0E94763C80333D
:107C300009F41DC183E00E94BD3C80E00E94C73C66
:107C400049CF0E94763C809309020E94763C809343
:107C5000080280910C028E7F80930C020E94763C79
:107C6000853409F415C18091080290910902892B8D
:107C700089F000E010E00E94763CF801E85FFE4FDA
:107C800080830F5F1F4F80910802909109020817AF
:107C9000190788F30E94763C803209F045CF809125
:107CA0000C0280FF01C16091060170910701660F0F
:107CB000771F7093070160930601A0910802B091AD
:107CC00009021097C9F0E8E0F1E09B01AD014E0F09
:107CD0005F1FF999FECF32BD21BD819180BDFA9A17
:107CE000F99A2F5F3F4FE417F50799F76A0F7B1F4B
:107CF00070930701609306018091C00085FFFCCF5F
:107D0000F092C6008091C00085FFFCCFB092C60003
:107D1000E1CE83E00E94C73CDDCE82E00E94C73CFA
:107D2000D9CE0E94763C809309020E94763C8093D3
:107D300008028091060190910701880F991F909386
:107D40000701809306010E94763C853409F4A6C0A1
:107D500080910C028E7F80930C020E94763C8032D0
:107D600009F0B8CE8091C00085FFFCCFF092C6002C
:107D7000609108027091090261157105B9F140E046
:107D800050E080910C02A82FA170B82FB27011C0E2
:107D9000BB2309F45CC0E0910601F0910701319624
:107DA000F0930701E09306014F5F5F4F46175707B7
:107DB000E8F4AA2369F3F999FECF209106013091E6
:107DC000070132BD21BDF89A90B58091C00085FFB2
:107DD000FCCF9093C6002F5F3F4F30930701209355
:107DE00006014F5F5F4F4617570718F38091C00099
:107DF00085FDE5CE8091C00085FFF8CFE0CE81E023
:107E00000E94C73C67CE0E94763C803209F08CCE3F
:107E10008091C00085FFFCCFF092C6008091C00029
:107E200085FFFCCFE092C6008091C00085FFFCCFAB
:107E3000D092C6008091C00085FFFCCFC092C600E2
:107E40008091C00085FFFCCFB092C60043CEE09188
:107E50000601F091070194918091C00085FFFCCF4D
:107E60009093C6009CCF80E10E94C73C33CE0E9415
:107E7000763C0E94763C182F0E94763C112309F430
:107E800083C0113009F484C08FE00E94C73C22CE29
:107E900080910C02816080930C02E5CE80910C02EF
:107EA000816080930C0259CF809107018823880F4D
:107EB000880B8A2180930B02809106019091070123
:107EC000880F991F90930701809306018091080203
:107ED00080FF09C080910802909109020196909359
:107EE000090280930802F894F999FECF1127E091D6
:107EF0000601F0910701C8E0D1E08091080290915D
:107F00000902103091F40091570001700130D9F34B
:107F100003E000935700E89500915700017001308D
:107F2000D9F301E100935700E89509901990009169
:107F3000570001700130D9F301E000935700E89534
:107F40001395103498F011270091570001700130FB
:107F5000D9F305E000935700E895009157000170B0
:107F60000130D9F301E100935700E895329602976A
:107F700009F0C7CF103011F00296E5CF112480919F
:107F8000C00085FFB9CEBCCE8EE10E94C73CA2CD19
:0C7F900085E90E94C73C9ECDF894FFCF0D
:027F9C00800063
:040000030000780081
:00000001FF