:100000000C9466000C948E000C948E000C948E0060
:100010000C948E000C948E000C948E000C948E0028
:100020000C948E000C948E000C948E000C948E0018
:100030000C948E000C948E000C948E000C948E0008
:100040000C9404030C948E000C948E000C948E007F
:100050000C948E000C948E000C948E000C948E00E8
:100060000C944E030C948E00240227022C023102C1
:1000700036023B02400245024A020000000800022C
:100080000100000304070000000000000000000061
:100090000000250028002B0000000000240027009D
:1000A0002A000404040404040404020202020202FA
:1000B000030303030303010204081020408001022C
:1000C00004081020010204081020D90511241FBEC5
:1000D000CFEFD8E0DEBFCDBF11E0A0E0B1E0EEEEA3
:1000E000FBE002C005900D92AC31B107D9F721E0D9
:1000F000ACE1B1E001C01D92A13DB207E1F710E013
:10010000C6E6D0E004C02197FE010E94EA05C5368C
:10011000D107C9F70E947C040C94F5050C940000EB
:1001200090E0FC01EA54FF4F2491FC01EE55FF4F93
:100130008491882399F090E0880F991FFC01E8567C
:10014000FF4FA591B491FC01E257FF4F8591949127
:100150008FB7F894EC91E22BEC938FBF089590E069
:10016000FC01E658FF4F2491FC01EA54FF4F349103
:10017000FC01EE55FF4FE491EE2309F43CC022232D
:1001800039F1233091F038F42130A9F0223001F513
:1001900084B58F7D12C0273091F02830A1F0243033
:1001A000B9F4809180008F7D03C0809180008F77AB
:1001B000809380000DC084B58F7784BD09C0809185
:1001C000B0008F7703C08091B0008F7D8093B00026
:1001D000F0E0EE0FFF1FE257FF4FA591B4919FB7DC
:1001E000F894611104C08C913095382302C0EC91D1
:1001F0003E2B3C939FBF08958E3008F08E50877041
:10020000806480937C0080917A00806480937A007F
:1002100080917A0086FDFCCF809178002091790052
:1002200090E0922B08953FB7F8948091C10190918E
:10023000C201A091C301B091C40126B5A89B05C01D
:100240002F3F19F00196A11DB11D3FBFBA2FA92F55
:10025000982F8827820F911DA11DB11DBC01CD01D2
:1002600043E0660F771F881F991F4A95D1F70895BD
:10027000E091B101F091B201309729F01092AC01F8
:100280001092AB0109940895CF93DF93AC01E091F4
:10029000AF01F091B0013097F1F09091AE018091F3
:1002A000AD019817C0F090E0292F30E026173707EE
:1002B00054F4D901A35EBE4FEA01C20FD31F2881B7
:1002C0002C939F5FF1CF1092AE016093AD01CB01F3
:1002D000DF91CF910994DF91CF910895CF92DF9272
:1002E000EF92FF920F931F93CF93DF936C017A01EC
:1002F0008B01C0E0D0E0CE15DF0581F0D8016D9113
:100300008D01D601ED91FC910190F081E02DC601A7
:100310000995892B11F02196EECF7E01C701DF915F
:10032000CF911F910F91FF90EF90DF90CF900895A4
:1003300085ED8093BC008091BC0084FDFCCF1092C1
:10034000AA01089540915D01262F30E0240F311D50
:1003500021323105DCF42091AA012430C9F4FC01DA
:1003600080E090E0861758F430915D012191DC0126
:10037000A35CBE4FA30FB11D2C930196F3CF8091C8
:100380005D01680F60935D0180E0089581E008954C
:1003900082E008950895E091AE018091AD01E817E3
:1003A00030F4F0E0E35EFE4F808190E008958FEF3F
:1003B0009FEF08959091AE018091AD01981750F490
:1003C000E92FF0E0E35EFE4F208130E09F5F9093E5
:1003D000AE0102C02FEF3FEFC90108958091AD013A
:1003E00090E02091AE01821B91090895CF93DF9395
:1003F000CB01EA01642F0E94A201CE01DF91CF91CF
:100400000895CF93DF931F92CDB7DEB7698361E084
:10041000CE0101960E94A20181E090E00F90DF9151
:10042000CF910895682F85EC91E00C940102CF9351
:10043000E0911C018E2F90E089309105D0F5FC01F0
:10044000EC5CFF4F0C94EA056091B3012DC0C091A4
:10045000BA018091BB0122C0C091B8018091B9015D
:100460001DC0C091B6018091B70118C0C091B40100
:100470008091B50113C0C0910701809108010EC0A1
:10048000C09104018091050109C0C09102018091D1
:10049000030104C0C09100018091010190E08370CC
:1004A00099270E9412026C2F85EC91E0CF910C9459
:1004B0000102CF910895089580E090E00895CF93D0
:1004C0000197039780F08091AD0190E02091AE01FB
:1004D000821B9109181619060CF092C085EC91E068
:1004E0000E94DA01F0CF85EC91E00E94DA0180935E
:1004F0001C0184FF37C08F70823009F45CC0C8F4DF
:10050000882309F43FC0813009F07AC085EC91E07E
:100510000E94DA01C82F85EC91E00E94DA0120E008
:1005200030E03C2F822B932B90930801809307019E
:1005300067C0833009F452C0843009F061C085EC93
:1005400091E00E94DA01C82F85EC91E00E94DA0167
:1005500020E030E03C2F822B932B9093010180937D
:1005600000014EC08091AD0190E02091AE01821B50
:100570009109181619060CF043C085EC91E00E9411
:10058000DA01F0CF85EC91E00E94DA018093060158
:10059000811136C060E082E00E94AF0060E083E03D
:1005A0000E94AF0060E084E00E94AF0060E085E060
:1005B000CF910C94AF0085EC91E00E94DA01C82F36
:1005C00085EC91E00E94DA0120E030E03C2F822BA4
:1005D000932B909305018093040112C085EC91E068
:1005E0000E94DA01C82F85EC91E00E94DA0120E038
:1005F00030E03C2F822B932B9093030180930201D8
:10060000CF9108950E94F0051F920F920FB60F929E
:1006100011242F933F938F939F93AF93BF93809118
:10062000BD019091BE01A091BF01B091C001309178
:10063000BC0126E0230F2D3720F40296A11DB11D29
:1006400005C029E8230F0396A11DB11D2093BC010D
:100650008093BD019093BE01A093BF01B093C001F0
:100660008091C1019091C201A091C301B091C401D8
:100670000196A11DB11D8093C1019093C201A09369
:10068000C301B093C401BF91AF919F918F913F91EE
:100690002F910F900FBE0F901F9018951F920F92E1
:1006A0000FB60F9211242F933F934F935F936F9345
:1006B0007F938F939F93AF93BF93EF93FF9380911B
:1006C000B900887F803609F49CC068F5883209F447
:1006D0005BC090F4803109F454C038F4882309F4E5
:1006E000F6C0883009F44DC0F6C0883109F44CC01A
:1006F000803209F45DC0EFC0803409F468C048F46A
:10070000803309F455C0883309F0E5C08093800137
:10071000D8C0803509F44FC0883509F45DC08834ED
:1007200009F0D9C0D6C0883909F4C7C0A8F4883701
:1007300009F467C038F4883609F463C0803709F4D7
:1007400060C0C9C0883809F4B8C0803909F45FC0F6
:10075000803809F0C0C05BC0803B09F486C038F423
:10076000803A09F466C0883A09F47FC0B4C0803C7E
:1007700009F4A7C0883C09F4A4C0883B09F48AC0E6
:10078000AAC08091A30110C09091A2018091A10103
:10079000981770F5E091A20181E08E0F8093A2017D
:1007A000F0E0EF57FE4F80818093BB0085EC86C060
:1007B000809380018EC0E091A20181E08E0F809332
:1007C000A2018091BB00F0E0EF57FE4F8083909133
:1007D000A2018091A1016EC0E091A20181E08E0F83
:1007E0008093A2018091BB00F0E0EF57FE4F808321
:1007F0008091A90181116DC081E08093A80184EAF4
:1008000061C083E08093AA0110927F01CFCF8091D5
:100810007F01803208F051C0E0917F0181E08E0FAE
:1008200080937F018091BB00F0E0E15AFE4F80830E
:10083000BDCF85EC8093BC001092AA0180917F010E
:10084000803230F4E0917F01F0E0E15AFE4F1082F7
:1008500060917F0170E0E091A401F091A5018FE526
:1008600091E0099510927F0136C084E08093AA013F
:1008700010925E0110925D01E091A601F091A70136
:10088000099580915D01811105C081E080935D0132
:1008900010923D01E0915E0181E08E0F80935E0138
:1008A000F0E0E35CFE4F80818093BB0090915E019D
:1008B00080915D01981708F479CF85E88093BC009A
:1008C0000AC085EC8093BC001092AA0104C010926B
:1008D00080010E949801FF91EF91BF91AF919F918C
:1008E0008F917F916F915F914F913F912F910F90D9
:1008F0000FBE0F901F901895789484B5826084BDC8
:1009000084B5816084BD85B5826085BD85B5816013
:1009100085BD80916E00816080936E001092810091
:10092000809181008260809381008091810081604C
:10093000809381008091800081608093800080910D
:10094000B10084608093B1008091B0008160809399
:10095000B00080917A00846080937A0080917A0060
:10096000826080937A0080917A008E7F80937A00F3
:1009700080917A00806880937A001092C100109272
:10098000AE011092AD011092AC011092AB01109229
:10099000AA0181E08093A9011092A80161E082E19F
:1009A0000E94AF0061E083E10E94AF008091B90036
:1009B0008E7F8093B9008091B9008D7F8093B900BC
:1009C00080E28093B80085E48093BC0088E391E0E6
:1009D0009093A7018093A60184E491E09093A501F0
:1009E0008093A40184EB8093BA0082E00E9490007F
:1009F00083E00E94900084E00E94900085E00E94C5
:100A000090008FE592E09093B0018093AF0187E171
:100A100092E09093B2018093B101C0E0D0E08EE00B
:100A20000E94FC006C019093BB018093BA018FE09F
:100A30000E94FC007C019093B9018093B80180E191
:100A40000E94FC009093B7018093B60181E10E945F
:100A5000FC009093B5018093B4012091070130917F
:100A60000801809106012C153D0550F4882321F0E2
:100A700060E082E00E94AF008091B3018E7F09C0E8
:100A8000882321F061E082E00E94AF008091B301F1
:100A900081608093B3012091040130910501809120
:100AA00006012E153F0550F4882321F060E083E015
:100AB0000E94AF008091B3018D7F09C0882321F08F
:100AC00061E083E00E94AF008091B3018260809377
:100AD000B3014091B6015091B701209102013091CC
:100AE0000301809106012417350750F4882321F073
:100AF00060E084E00E94AF008091B3018B7F09C069
:100B0000882321F061E084E00E94AF008091B3016E
:100B100084608093B3014091B4015091B50120915C
:100B2000000130910101809106012417350750F42E
:100B3000882321F060E085E00E94AF008091B3013E
:100B4000877F09C0882321F061E085E00E94AF0023
:100B50008091B30188608093B3010E9413014B011F
:100B60005C018AE0C82ED12CE12CF12C0E941301EB
:100B7000DC01CB0188199909AA09BB09883E934079
:100B8000A105B10598F321E0C21AD108E108F108E6
:100B900088EE880E83E0981EA11CB11CC114D104FC
:100BA000E104F10419F7209709F439CF0E940000FD
:100BB00036CFE5ECF1E01382128288EE93E0A0E0FC
:100BC000B0E084839583A683B7838DE091E0918321
:100BD00080830895EE0FFF1F0590F491E02D099496
:0E0BE00081E090E0F8940C94F505F894FFCFB6
:100BEE00900190019001019001000000000102F6B9
:0C0BFE00015C02CA01EE01DA01CB01002B
:107800000C94343C0C94513C0C94513C0C94513CE1
:107810000C94513C0C94513C0C94513C0C94513CB4
:107820000C94513C0C94513C0C94513C0C94513CA4
:107830000C94513C0C94513C0C94513C0C94513C94
:107840000C94513C0C94513C0C94513C0C94513C84
:107850000C94513C0C94513C0C94513C0C94513C74
:107860000C94513C0C94513C11241FBECFEFD8E036
:10787000DEBFCDBF11E0A0E0B1E0EAE8FFE702C063
:1078800005900D92A230B107D9F712E0A2E0B1E065
:1078900001C01D92AD30B107E1F70E942D3D0C945F
:1078A000C33F0C94003C982F95959595959595958B
:1078B000905D8F708A307CF0282F295A8091C0000B
:1078C00085FFFCCF9093C6008091C00085FFFCCF60
:1078D0002093C6000895282F205DF0CF982F809127
:1078E000C00085FFFCCF9093C6000895EF92FF92F1
:1078F0000F931F93EE24FF2487018091C00087FD22
:1079000017C00894E11CF11C011D111D81E2E8164D
:1079100081EAF80687E0080780E0180770F3E09135
:107920000401F091050109958091C00087FFE9CF1E
:107930008091C6001F910F91FF90EF9008950E94D3
:10794000763C982F8091C00085FFFCCF9093C600B5
:1079500091362CF490330CF09053892F089597555D
:10796000892F08951F930E949F3C182F0E949F3CCF
:107970001295107F810F1F9108951F93182F882350
:1079800021F00E94763C1150E1F71F9108951F935A
:10799000182F0E94763C803249F0809103018F5F5E
:1079A000809303018530C1F01F9108958091C0003C
:1079B00085FFFCCF84E18093C6008091C00085FFE5
:1079C000FCCF1093C6008091C00085FFFCCF80E102
:1079D0008093C6001F910895E0910401F091050184
:1079E00009951F9108950E94763C803241F0809164
:1079F00003018F5F80930301853081F008958091AA
:107A0000C00085FFFCCF84E18093C6008091C00058
:107A100085FFFCCF80E18093C6000895E0910401CA
:107A2000F09105010995089548EC50E08823A1F0F4
:107A30002D9A28EE33E0FA013197F1F721503040CA
:107A4000D1F72D9828EE33E0FA013197F1F7215064
:107A50003040D1F7815061F708953F924F925F9285
:107A60006F927F928F929F92AF92BF92CF92DF924E
:107A7000EF92FF920F931F93CF93DF93000082E06A
:107A80008093C00080E18093C4001092C50088E11B
:107A90008093C10086E08093C2005098589A259A3E
:107AA00081E00E94143D24E1F22E9EE1E92E85E959
:107AB000D82E0FE0C02E10E1B12EAA24A394B1E479
:107AC0009B2EA6E58A2EF2E57F2EE0E26E2E79E46B
:107AD000572E63E5462E50E5352E0E94763C8033C6
:107AE000B1F18133B9F1803409F46FC0813409F404
:107AF00076C0823409F485C0853409F488C08035A5
:107B000031F1823521F1813511F1853509F485C0D6
:107B1000863509F48DC0843609F496C0843709F49B
:107B200003C1853709F472C1863709F466C08091B4
:107B300003018F5F80930301853079F6E0910401A2
:107B4000F091050109950E94763C803351F60E9420
:107B5000F33CC3CF0E94763C803249F78091C0004D
:107B600085FFFCCFF092C6008091C00085FFFCCF5E
:107B70009092C6008091C00085FFFCCF8092C60025
:107B80008091C00085FFFCCF7092C6008091C0003C
:107B900085FFFCCF6092C6008091C00085FFFCCFBE
:107BA0005092C6008091C00085FFFCCF4092C60075
:107BB0008091C00085FFFCCF3092C6008091C0004C
:107BC00085FFFCCFB092C60088CF0E94763C8638F5
:107BD00008F4BDCF0E94763C0E94F33C7ECF0E9409
:107BE000763C803809F49CC0813809F40BC1823896
:107BF00009F430C1883909F48FC080E00E94C73C85
:107C00006CCF84E10E94BD3C0E94F33C66CF85E0CE
:107C10000E94BD3C0E94F33C60CF0E94763C809362
:107C200006010E94763C809307010E94F33C55CFE9
:107C30000E94763C803309F411C183E00E94BD3C70
:107C400080E00E94C73C49CF0E94763C80930902A5
:107C50000E94763C8093080280910C028E7F809374
:107C60000C020E94763C853409F409C18091080217
:107C700090910902892B89F000E010E00E94763C87
:107C8000F801E85FFE4F80830F5F1F4F809108026D
:107C9000909109020817190788F30E94763C8032F8
:107CA00009F045CF80910C0280FFF5C0609106017C
:107CB00070910701660F771F7093070160930601AB
:107CC000A0910802B09109021097C9F0E8E0F1E034
:107CD0009B01AD014E0F5F1FF999FECF32BD21BD53
:107CE000819180BDFA9AF99A2F5F3F4FE417F5070B
:107CF00099F76A0F7B1F70930701609306018091CB
:107D0000C00085FFFCCFF092C6008091C00085FFC7
:107D1000FCCFB092C600E1CE83E00E94C73CDDCE2E
:107D200082E00E94C73CD9CE0E94763C8093090233
:107D30000E94763C80930802809106019091070191
:107D4000880F991F90930701809306010E94763C4B
:107D5000853409F49AC080910C028E7F80930C02C6
:107D60000E94763C803209F0B8CE8091C00085FF39
:107D7000FCCFF092C600A0910802B09109021097C2
:107D8000C1F180910C02082F0170182F1695117007
:107D9000E0910601F0910701AF014F5F5F4FBA011B
:107DA00020E030E00023B1F4112339F49491809164
:107DB000C00085FFFCCF9093C6002F5F3F4FCB01E3
:107DC0000196FA012A173B0780F4BC014F5F5F4F11
:107DD000002351F3F999FECFF2BDE1BDF89A90B5B9
:107DE0008091C00085FFFCCFE6CF709307016093C0
:107DF00006018091C00085FDE5CE8091C00085FF21
:107E0000F8CFE0CE81E00E94C73C67CE0E94763C6E
:107E1000803209F08CCE8091C00085FFFCCFF092BB
:107E2000C6008091C00085FFFCCFE092C600809123
:107E3000C00085FFFCCFD092C6008091C00085FFB6
:107E4000FCCFC092C6008091C00085FFFCCFB092ED
:107E5000C60043CE80E10E94C73C3FCE0E94763CE4
:107E60000E94763C182F0E94763C112309F483C0AF
:107E7000113009F484C08FE00E94C73C2ECE80915F
:107E80000C02816080930C02F1CE80910C02816023
:107E900080930C0265CF809107018823880F880B9F
:107EA0008A2180930B028091060190910701880F2F
:107EB000991F90930701809306018091080280FF2B
:107EC00009C08091080290910902019690930902DD
:107ED00080930802F894F999FECF1127E0910601EA
:107EE000F0910701C8E0D1E0809108029091090269
:107EF000103091F40091570001700130D9F303E084
:107F000000935700E8950091570001700130D9F3B4
:107F100001E100935700E8950990199000915700EE
:107F200001700130D9F301E000935700E8951395F3
:107F3000103498F011270091570001700130D9F3E7
:107F400005E000935700E89500915700017001305B
:107F5000D9F301E100935700E8953296029709F0B2
:107F6000C7CF103011F00296E5CF11248091C000E8
:107F700085FFC5CEC8CE8EE10E94C73CAECD85E957
:0A7F80000E94C73CAACDF894FFCF81
:027F8A00800075
:040000030000780081
:00000001FF
