:100000000C9458000C9480000C9480000C94800098
:100010000C9480000C9480000C9480000C94800060
:100020000C9480000C9480000C9480000C94800050
:100030000C9480000C9480000C9480000C94800040
:100040000C94C7010C9480000C9480000C948000E8
:100050000C9480000C9480000C9480000C94800020
:100060000C9411020C948000000000002500280070
:100070002B00040404040404040402020202020229
:10008000030303030303010204081020408001025C
:1000900004081020010204081020000000080002DB
:1000A00001000003040700000000000000002B0412
:1000B00011241FBECFEFD8E0DEBFCDBF11E0A0E01E
:1000C000B1E0E2E9F8E002C005900D92A231B1077B
:1000D000D9F721E0A2E1B1E001C01D92A13CB20735
:1000E000E1F710E0C8E5D0E004C02197FE010E94CE
:1000F0003C04C735D107C9F70E943F030C9447045D
:100100000C94000090E0FC01E656FF4F2491FC01A6
:10011000EA57FF4F3491FC01EE58FF4FE491EE2374
:10012000B1F1222339F1233091F038F42130A9F0D4
:10013000223001F584B58F7D12C0273091F0283030
:10014000A1F02430B9F4809180008F7D03C08091AC
:1001500080008F77809380000DC084B58F7784BD39
:1001600009C08091B0008F7703C08091B0008F7D6F
:100170008093B000F0E0EE0FFF1FE859FF4FA5910C
:10018000B4918FB7F894EC913E2B3C938FBF0895B8
:100190000895E091A601F091A701309729F01092FF
:1001A0009D0110929C0109940895CF93DF93AC01B7
:1001B000E091A401F091A5013097F1F090919F0199
:1001C00080919E019817C0F090E0292F30E026170B
:1001D000370754F4D901AE5EBE4FEA01C20FD31FF8
:1001E00088818C939F5FF1CF10929F0160939E0155
:1001F000CB01DF91CF910994DF91CF910895CF92F8
:10020000DF92EF92FF920F931F93CF93DF936C01D6
:100210007A018B01C0E0D0E0CE15DF0589F0D8016E
:100220006D918D01D601ED91FC910190F081E02D51
:10023000C6010995892B11F47E0102C02196ECCFED
:10024000C701DF91CF911F910F91FF90EF90DF9049
:10025000CF90089585ED8093BC008091BC0084FD13
:10026000FCCF10929B01089540915201262F30E05F
:10027000240F311D21323105DCF420919B01243003
:10028000C9F4FC0180E090E0861758F430915201E7
:100290002191DC01AE5CBE4FA30FB11D2C930196E2
:1002A000F3CF80915201680F6093520180E008956E
:1002B00081E0089582E008950895E0919F01809182
:1002C0009E01E81730F4F0E0EE5EFE4F808190E092
:1002D00008958FEF9FEF089590919F0180919E0167
:1002E000981750F4E92FF0E0EE5EFE4F208130E0E9
:1002F0009F5F90939F0102C02FEF3FEFC9010895C8
:1003000080919E0190E020919F01821B91090895A8
:10031000CF93DF9300D0CDB7DEB7CB01642F4983F5
:100320005A830E9434014981842F5A81952F0F905E
:100330000F90DF91CF910895CF93DF931F92CDB7A8
:10034000DEB7698361E0CE0101960E94340181E04D
:1003500090E00F90DF91CF910895089580E090E0B4
:1003600008956091B40188EA91E00E949C011A9975
:1003700002C061E001C06FEF88EA91E00E949C0139
:100380001092B5011092B40108950E9442041F9288
:100390000F920FB60F9211242F933F938F939F9339
:1003A000AF93BF938091BD019091BE01A091BF0119
:1003B000B091C0013091BC0126E0230F2D3720F40D
:1003C0000296A11DB11D05C029E8230F0396A11DAA
:1003D000B11D2093BC018093BD019093BE01A093F9
:1003E000BF01B093C0018091B8019091B901A09173
:1003F000BA01B091BB010196A11DB11D8093B80156
:100400009093B901A093BA01B093BB01BF91AF9192
:100410009F918F913F912F910F900FBE0F901F9042
:1004200018951F920F920FB60F9211242F933F939E
:100430004F935F936F937F938F939F93AF93BF93EC
:10044000EF93FF938091B900887F803609F49CC0B8
:1004500068F5883209F45BC090F4803109F454C027
:1004600038F4882309F4F6C0883009F44DC0F6C08A
:10047000883109F44CC0803209F45DC0EFC080348B
:1004800009F468C048F4803309F455C0883309F092
:10049000E5C080937501D8C0803509F44FC0883518
:1004A00009F45DC0883409F0D9C0D6C0883909F490
:1004B000C7C0A8F4883709F467C038F4883609F44F
:1004C00063C0803709F460C0C9C0883809F4B8C077
:1004D000803909F45FC0803809F0C0C05BC0803B40
:1004E00009F486C038F4803A09F466C0883A09F401
:1004F0007FC0B4C0803C09F4A7C0883C09F4A4C004
:10050000883B09F48AC0AAC08091980110C09091DC
:10051000970180919601981770F5E091970181E01D
:100520008E0F80939701F0E0EA58FE4F8081809310
:10053000BB0085EC86C0809375018EC0E091970169
:1005400081E08E0F809397018091BB00F0E0EA5824
:10055000FE4F808390919701809196016EC0E0914B
:10056000970181E08E0F809397018091BB00F0E0AE
:10057000EA58FE4F808380919A0181116DC081E01D
:100580008093990184EA61C083E080939B0110927B
:100590007401CFCF80917401803208F051C0E09196
:1005A000740181E08E0F809374018091BB00F0E0B4
:1005B000EC5AFE4F8083BDCF85EC8093BC00109237
:1005C0009B0180917401803230F4E0917401F0E07D
:1005D000EC5AFE4F10826091740170E0E091A0012E
:1005E000F091A10184E591E009951092740136C063
:1005F00084E080939B011092530110925201E0918C
:10060000A201F091A301099580915201811105C0C9
:1006100081E08093520110923201E091530181E018
:100620008E0F80935301F0E0EE5CFE4F808180934B
:10063000BB009091530180915201981708F479CF33
:1006400085E88093BC000AC085EC8093BC001092C2
:100650009B0104C0109275010E942A01FF91EF9145
:10066000BF91AF919F918F917F916F915F914F91CA
:100670003F912F910F900FBE0F901F901895789477
:1006800084B5826084BD84B5816084BD85B5826097
:1006900085BD85B5816085BD80916E008160809348
:1006A0006E001092810080918100826080938100B1
:1006B00080918100816080938100809180008160C1
:1006C000809380008091B10084608093B10080911C
:1006D000B00081608093B00080917A008460809344
:1006E0007A0080917A00826080937A0080917A000B
:1006F0008E7F80937A0080917A00806880937A0060
:100700001092C10014B88FEF85B917B887E088B987
:1007100084EC8093BA0089EC90E09093A3018093DD
:10072000A20185ED90E09093A1018093A001109229
:100730009F0110929E0110929D0110929C011092B7
:100740009B0181E080939A011092990182E10E94BD
:10075000820083E10E9482008091B9008E7F8093A5
:10076000B9008091B9008D7F8093B90080E28093B9
:10077000B80085E48093BC0088EC90E09093A501DC
:100780008093A40181EB91E09093A7018093A6014F
:10079000C0E0D0E08091B6019091B7018130910521
:1007A00089F11CF4892B39F050C08230910581F019
:1007B0000397D9F04AC086B18370282F30E0309378
:1007C000B7012093B6018130A1F18230F1F527C045
:1007D00086B18370282F30E03093B7012093B601A3
:1007E000882339F18330D9F030C086B18370282F47
:1007F00030E03093B7012093B601813081F0823030
:1008000021F517C086B18370282F30E03093B701EF
:100810002093B601882319F0833059F016C08091D7
:10082000B4019091B50182382FEF920774F00197CF
:1008300008C08091B4019091B5018F3791052CF4D7
:1008400001969093B5018093B401209709F4A2CF4B
:100850000E9400009FCFE8EAF1E01382128288EE46
:1008600093E0A0E0B0E084839583A683B78384E01F
:1008700091E0918380830895EE0FFF1F0590F4911E
:10088000E02D099481E090E0F8940C944704F894EA
:02089000FFCF98
:10089200000000009C018801AE015C0180016C0136
:0208A2005D01F6
:00000001FF
