:100000000C945D000C9485000C9485000C94850084
:100010000C9485000C9485000C9485000C9485004C
:100020000C9485000C9485000C9485000C94BA0403
:100030000C9485000C9485000C9485000C9485002C
:100040000C9442030C9485000C9485000C9485005C
:100050000C9485000C9485000C9485000C9485000C
:100060000C948C030C9485000000000024002700F1
:100070002A0000000000250028002B0004040404CE
:100080000404040402020202020203030303030342
:10009000010204081020408001020408102001021F
:1000A00004081020000000080002010000030407FB
:1000B00000000000000000007B0511241FBECFEFF0
:1000C000D8E0DEBFCDBF11E0A0E0B1E0ECE7FDE09D
:1000D00002C005900D92AE31B107D9F722E0AEE132
:1000E000B1E001C01D92AD31B207E1F710E0CDE5FE
:1000F000D0E004C02197FE010E94B106CC35D107A3
:10010000C9F70E94B2050C94BC060C940000089537
:10011000CF93DF93AC01E091BD01F091BE01309728
:10012000F1F09091BC018091BB019817C0F090E074
:10013000292F30E02617370754F4D901A55DBE4FAB
:10014000EA01C20FD31F28812C939F5FF1CF109239
:10015000BC016093BB01CB01DF91CF910994DF918A
:10016000CF910895CF92DF92EF92FF920F931F935A
:10017000CF93DF936C017A018B01C0E0D0E0CE1504
:10018000DF0581F0D8016D918D01D601ED91FC91D3
:100190000190F081E02DC6010995892B11F021967F
:1001A000EECF7E01C701DF91CF911F910F91FF909C
:1001B000EF90DF90CF90089590E0FC01EC55FF4F59
:1001C0002491FC01E057FF4F3491FC01E458FF4FAC
:1001D000E491EE2309F43CC0222339F1233091F05D
:1001E00038F42130A9F0223001F584B58F7D12C09A
:1001F000273091F02830A1F02430B9F480918000AC
:100200008F7D03C0809180008F77809380000DC028
:1002100084B58F7784BD09C08091B0008F7703C00B
:100220008091B0008F7D8093B000F0E0EE0FFF1F53
:10023000EE58FF4FA591B4919FB7F894611104C097
:100240008C913095382302C0EC913E2B3C939FBF9C
:10025000089585ED8093BC008091BC0084FDFCCFA7
:100260001092B801089540916B01262F30E0240FC1
:10027000311D21323105DCF42091B8012430C9F45C
:10028000FC0180E090E0861758F430916B012191D9
:10029000DC01A55BBE4FA30FB11D2C930196F3CFDC
:1002A00080916B01680F60936B0180E0089581E09D
:1002B000089582E008950895E091BC018091BB010A
:1002C000E81730F4F0E0E55DFE4F808190E008959E
:1002D0008FEF9FEF08959091BC018091BB0198171B
:1002E00050F4E92FF0E0E55DFE4F208130E09F5FA4
:1002F0009093BC0102C02FEF3FEFC9010895809198
:10030000BB0190E02091BC01821B91090895CF931D
:10031000DF93CB01EA01642F0E943301CE01DF910C
:10032000CF910895CF93DF931F92CDB7DEB7698346
:1003300061E0CE0101960E94330181E090E00F90D0
:10034000DF91CF910895089580E090E00895FC0139
:1003500090819C3088F5818128E830E0281B3109A4
:1003600087FD3395220F331F220F331F6217730748
:1003700084F0828148E552E0481B510987FD53957E
:10038000440F551F440F551F9B01461757070CF488
:100390009A0122503109220F331F4FB7F894892F49
:1003A00090E0FC01EE0FFF1F8E0F9F1FFC01EC522F
:1003B000FE4F328321834FBF08952F923F924F9279
:1003C0005F926F927F928F929F92AF92BF92CF92E5
:1003D000DF92EF92FF920F931F93CF93DF938C01E5
:1003E0000297029708F02AC192E0B92E28E8622EFF
:1003F000712C34EBC32ED12CE12CF12C8091BB015C
:1004000090E02091BC01821B9109181619060CF08E
:1004100024C188EC91E00E946B01982F907FA92E57
:100420008F708C3008F0FBC0C82FD0E0FE01E25E78
:10043000FE4F8081811187C081E080839E01220F61
:10044000331FF901EC0FFD1FE750FE4F80818C3008
:1004500008F079C0FE01E050FF4F9080892D90E0B8
:10046000FC01E057FF4F6491FC01E458FF4F849179
:10047000882399F090E0880F991FFC01E859FF4FFD
:10048000A591B491FC01EE58FF4F459154918FB75F
:10049000F894EC916E2B6C938FBFF901EC0FFD1F5C
:1004A000E750FE4F8081482F50E0BA01660F771F5A
:1004B000460F571FDA01AC52BE4F992D9F734C91D6
:1004C000407C942E992A9C92118212826CE00E94A8
:1004D000A5069CE0899FD001112460E070E0AD0189
:1004E000460F571FFA01EE0FFF1FE40FF51FEC52E6
:1004F000FE4F908196FD15C06F5F7F4F6C30710588
:1005000071F781110EC010928000B092810010929C
:10051000850010928400B19A80916F008260809370
:100520006F002C0F3D1FF901E750FE4F808190E0D6
:100530009C01220F331F820F931FFC01EC52FE4FD0
:10054000808180648083A11018C00330110509F0F8
:1005500066C088EC91E00E946B01A82E88EC91E0C7
:100560000E946B01982F8827BC016A0D711DCE0176
:10057000880F991F8C0F9D1F4DC080E1A8123ECFA0
:100580000230110509F04BC088EC91E00E946B012C
:100590004E01880C991CF401EC0FFD1FE750FE4F33
:1005A00091811301291A310897FD3394220C331CD1
:1005B000220C331C032C000C44085508928128E5BA
:1005C00032E0291B310997FD3395220F331F220F8B
:1005D000331FA901330F660B770B9A01AB01221968
:1005E000330944095509A82FB0E0A53BB10514F023
:1005F000A4EBB0E00E946C06A70196010E9442069F
:10060000CA01B901620D731D841D951D94012C0F43
:100610003D1FC90187509E4F0E94A701EFCE8091D8
:10062000BB0190E02091BC01821B910918161906AC
:10063000A4F488EC91E00E946B01F1CF8091BB01A2
:1006400090E02091BC01821B9109181619062CF428
:1006500088EC91E00E946B01F1CFDF91CF911F9167
:100660000F91FF90EF90DF90CF90BF90AF909F9051
:100670008F907F906F905F904F903F902F90089554
:100680000E94B7061F920F920FB60F9211242F935C
:100690003F938F939F93AF93BF938091C4019091A9
:1006A000C501A091C601B091C7013091C30123E0FB
:1006B000230F2D3720F40196A11DB11D05C026E89A
:1006C000230F0296A11DB11D2093C3018093C40185
:1006D0009093C501A093C601B093C7018091BF015B
:1006E0009091C001A091C101B091C2010196A11DDC
:1006F000B11D8093BF019093C001A093C101B0933D
:10070000C201BF91AF919F918F913F912F910F9017
:100710000FBE0F901F9018951F920F920FB60F9259
:1007200011242F933F934F935F936F937F938F93F6
:100730009F93AF93BF93EF93FF938091B900887F0E
:10074000803609F49CC068F5883209F45BC090F4E7
:10075000803109F454C038F4882309F4F6C0883095
:1007600009F44DC0F6C0883109F44CC0803209F458
:100770005DC0EFC0803409F468C048F4803309F4E8
:1007800055C0883309F0E5C080938E01D8C080350C
:1007900009F44FC0883509F45DC0883409F0D9C028
:1007A000D6C0883909F4C7C0A8F4883709F467C0EF
:1007B00038F4883609F463C0803709F460C0C9C0D2
:1007C000883809F4B8C0803909F45FC0803809F06E
:1007D000C0C05BC0803B09F486C038F4803A09F49D
:1007E00066C0883A09F47FC0B4C0803C09F4A7C051
:1007F000883C09F4A4C0883B09F48AC0AAC080914F
:10080000B10110C09091B0018091AF01981770F5BF
:10081000E091B00181E08E0F8093B001F0E0E157EC
:10082000FE4F80818093BB0085EC86C080938E0153
:100830008EC0E091B00181E08E0F8093B001809175
:10084000BB00F0E0E157FE4F80839091B0018091B2
:10085000AF016EC0E091B00181E08E0F8093B001D6
:100860008091BB00F0E0E157FE4F80838091B7019B
:1008700081116DC081E08093B60184EA61C083E09C
:100880008093B80110928D01CFCF80918D0180327D
:1008900008F051C0E0918D0181E08E0F80938D01B1
:1008A0008091BB00F0E0E359FE4F8083BDCF85EC23
:1008B0008093BC001092B80180918D01803230F499
:1008C000E0918D01F0E0E359FE4F108260918D01BF
:1008D00070E0E091B201F091B3018DE691E00995ED
:1008E00010928D0136C084E08093B80110926C01A3
:1008F00010926B01E091B401F091B50109958091DE
:100900006B01811105C081E080936B0110924B0156
:10091000E0916C0181E08E0F80936C01F0E0E55B6B
:10092000FE4F80818093BB0090916C0180916B01A0
:10093000981708F479CF85E88093BC000AC085EC4D
:100940008093BC001092B80104C010928E010E94E6
:100950002901FF91EF91BF91AF919F918F917F916D
:100960006F915F914F913F912F910F900FBE0F901C
:100970001F9018951F920F920FB60F9211242F936C
:100980003F934F935F936F937F938F939F93AF9317
:10099000BF93EF93FF9380912A0187FF05C01092C8
:1009A0008500109284001BC020912A01022E000CA9
:1009B000330B8091F80190E02817390784F4809177
:1009C0002A01082E000C990BFC01EE0FFF1F8E0F61
:1009D0009F1FFC01EC52FE4F808186FD15C0809167
:1009E0002A018F5F80932A0120912A01022E000C98
:1009F000330B8091F80190E028173907C4F48091F7
:100A00002A018C3064F113C080912A01082E000C59
:100A1000990BFC01EE0FFF1F8E0F9F1FFC01EC5284
:100A2000FE4F808160E08F730E94DC00D8CF809100
:100A3000840090918500049680349C4918F480E4E9
:100A40009CE905C080918400909185000496909364
:100A50008900809388008FEF80932A013BC020910A
:100A600084003091850080912A01082E000C990B9A
:100A7000FC01EE0FFF1F8E0F9F1FFC01EC52FE4F7B
:100A800081819281820F931F9093890080938800C7
:100A900080912A01082E000C990BFC01EE0FFF1F1C
:100AA0008E0F9F1FFC01EC52FE4F808186FF12C00B
:100AB00080912A01082E000C990BFC01EE0FFF1FFC
:100AC0008E0F9F1FFC01EC52FE4F808161E08F73FF
:100AD0000E94DC00FF91EF91BF91AF919F918F91A8
:100AE0007F916F915F914F913F912F910F900FBE2A
:100AF0000F901F9018951092CB011092CA0188EEAA
:100B000093E0A0E0B0E08093CC019093CD01A0935E
:100B1000CE01B093CF0180E191E09093C901809321
:100B2000C8018091F801A9EFB1E09FEF48EB5BE0CD
:100B30008C3078F48C93282F30E0F901EE0FFF1FF2
:100B40002E0F3F1FF901EC52FE4F528341838F5FFE
:100B500001C09C93139622E0AD31B20749F7809310
:100B6000F8010895789484B5826084BD84B581606D
:100B700084BD85B5826085BD85B5816085BD809168
:100B80006E00816080936E001092810080918100E0
:100B900082608093810080918100816080938100D8
:100BA000809180008160809380008091B10084609A
:100BB0008093B1008091B00081608093B0008091FB
:100BC0007A00846080937A0080917A0082608093BA
:100BD0007A0080917A00816080937A0080917A0017
:100BE000806880937A001092C100C0E0D1E061E09B
:100BF00089910E94DC0081E0CC30D807C1F71092C7
:100C0000BC011092BB011092BA011092B90110926E
:100C1000B80181E08093B7011092B60161E082E1F2
:100C20000E94DC0061E083E10E94DC008091B90059
:100C30008E7F8093B9008091B9008D7F8093B90039
:100C400088E48093B80085E48093BC0087E890E056
:100C50009093B5018093B40188E890E09093B3013C
:100C60008093B20188EA8093BA008DED91E0909371
:100C7000BE018093BD01C0E0D0E02097F1F30E9457
:100C80000000FBCF052E97FB1EF400940E9459062E
:100C900057FD07D00E94740607FC03D04EF40C9455
:100CA000590650954095309521953F4F4F4F5F4FD6
:100CB000089590958095709561957F4F8F4F9F4FC8
:100CC00008950E949606A59F900DB49F900DA49F35
:100CD000800D911D11240895B7FF0C9461060E94A8
:100CE0006106821B930B0895A1E21A2EAA1BBB1B5F
:100CF000FD010DC0AA1FBB1FEE1FFF1FA217B307E8
:100D0000E407F50720F0A21BB30BE40BF50B661FFD
:100D1000771F881F991F1A9469F7609570958095C1
:100D200090959B01AC01BD01CF010895A29FB00138
:100D3000B39FC001A39F700D811D1124911DB29F0F
:100D4000700D811D1124911D0895991B79E004C037
:100D5000991F961708F0961B881F7A95C9F78095FA
:100D60000895EE0FFF1F0590F491E02D099481E0A6
:0C0D700090E0F8940C94BC06F894FFCFBF
:100D7C0000010203040506070E0F1011000000000D
:0E0D8C0092018701A4015B017F016B015C01F4
:107800000C94343C0C94513C0C94513C0C94513CE1
:107810000C94513C0C94513C0C94513C0C94513CB4
:107820000C94513C0C94513C0C94513C0C94513CA4
:107830000C94513C0C94513C0C94513C0C94513C94
:107840000C94513C0C94513C0C94513C0C94513C84
:107850000C94513C0C94513C0C94513C0C94513C74
:107860000C94513C0C94513C11241FBECFEFD8E036
:10787000DEBFCDBF11E0A0E0B1E0ECE9FFE702C060
:1078800005900D92A230B107D9F712E0A2E0B1E065
:1078900001C01D92AD30B107E1F70E942D3D0C945F
:1078A000CC3F0C94003C982F959595959595959582
:1078B000905D8F708A307CF0282F295A8091C0000B
:1078C00085FFFCCF9093C6008091C00085FFFCCF60
:1078D0002093C6000895282F205DF0CF982F809127
:1078E000C00085FFFCCF9093C6000895EF92FF92F1
:1078F0000F931F93EE24FF2487018091C00087FD22
:1079000017C00894E11CF11C011D111D81E4E8164B
:1079100082E4F8068FE0080780E0180770F3E09132
:107920000401F091050109958091C00087FFE9CF1E
:107930008091C6001F910F91FF90EF9008950E94D3
:10794000763C982F8091C00085FFFCCF9093C600B5
:1079500091362CF490330CF09053892F089597555D
:10796000892F08951F930E949F3C182F0E949F3CCF
:107970001295107F810F1F9108951F93182F882350
:1079800021F00E94763C1150E1F71F9108951F935A
:10799000182F0E94763C803249F0809103018F5F5E
:1079A000809303018530C1F01F9108958091C0003C
:1079B00085FFFCCF84E18093C6008091C00085FFE5
:1079C000FCCF1093C6008091C00085FFFCCF80E102
:1079D0008093C6001F910895E0910401F091050184
:1079E00009951F9108950E94763C803241F0809164
:1079F00003018F5F80930301853081F008958091AA
:107A0000C00085FFFCCF84E18093C6008091C00058
:107A100085FFFCCF80E18093C6000895E0910401CA
:107A2000F09105010995089540E951E08823A1F0FE
:107A30002D9A28EE33E0FA013197F1F721503040CA
:107A4000D1F72D9828EE33E0FA013197F1F7215064
:107A50003040D1F7815061F708953F924F925F9285
:107A60006F927F928F929F92AF92BF92CF92DF924E
:107A7000EF92FF920F931F93CF93DF93000080E16B
:107A80008093C4001092C50088E18093C10086E015
:107A90008093C2005098589A259A81E00E94143D24
:107AA00024E1F22E9EE1E92E85E9D82E0FE0C02ECA
:107AB00010E1B12EAA24A394B1E49B2EA6E58A2E50
:107AC000F2E57F2EE0E26E2E79E4572E63E5462E36
:107AD00050E5352E0E94763C8033B1F18133B9F107
:107AE000803409F46FC0813409F476C0823409F41B
:107AF00085C0853409F488C0803531F1823521F1A3
:107B0000813511F1853509F485C0863509F48DC0BC
:107B1000843609F496C0843709F403C1853709F423
:107B200072C1863709F466C0809103018F5F80932C
:107B30000301853079F6E0910401F0910501099582
:107B40000E94763C803351F60E94F33CC3CF0E94E2
:107B5000763C803249F78091C00085FFFCCFF092DF
:107B6000C6008091C00085FFFCCF9092C600809136
:107B7000C00085FFFCCF8092C6008091C00085FFC9
:107B8000FCCF7092C6008091C00085FFFCCF609250
:107B9000C6008091C00085FFFCCF5092C600809146
:107BA000C00085FFFCCF4092C6008091C00085FFD9
:107BB000FCCF3092C6008091C00085FFFCCFB09210
:107BC000C60088CF0E94763C863808F4BDCF0E945C
:107BD000763C0E94F33C7ECF0E94763C803809F4CC
:107BE0009CC0813809F40BC1823809F43CC1883942
:107BF00009F48FC080E00E94C73C6CCF84E10E94F2
:107C0000BD3C0E94F33C66CF85E00E94BD3C0E94D3
:107C1000F33C60CF0E94763C809306010E94763C44
:107C2000809307010E94F33C55CF0E94763C80333D
:107C300009F41DC183E00E94BD3C80E00E94C73C66
:107C400049CF0E94763C809309020E94763C809343
:107C5000080280910C028E7F80930C020E94763C79
:107C6000853409F415C18091080290910902892B8D
:107C700089F000E010E00E94763CF801E85FFE4FDA
:107C800080830F5F1F4F80910802909109020817AF
:107C9000190788F30E94763C803209F045CF809125
:107CA0000C0280FF01C16091060170910701660F0F
:107CB000771F7093070160930601A0910802B091AD
:107CC00009021097C9F0E8E0F1E09B01AD014E0F09
:107CD0005F1FF999FECF32BD21BD819180BDFA9A17
:107CE000F99A2F5F3F4FE417F50799F76A0F7B1F4B
:107CF00070930701609306018091C00085FFFCCF5F
:107D0000F092C6008091C00085FFFCCFB092C60003
:107D1000E1CE83E00E94C73CDDCE82E00E94C73CFA
:107D2000D9CE0E94763C809309020E94763C8093D3
:107D300008028091060190910701880F991F909386
:107D40000701809306010E94763C853409F4A6C0A1
:107D500080910C028E7F80930C020E94763C8032D0
:107D600009F0B8CE8091C00085FFFCCFF092C6002C
:107D7000609108027091090261157105B9F140E046
:107D800050E080910C02A82FA170B82FB27011C0E2
:107D9000BB2309F45CC0E0910601F0910701319624
:107DA000F0930701E09306014F5F5F4F46175707B7
:107DB000E8F4AA2369F3F999FECF209106013091E6
:107DC000070132BD21BDF89A90B58091C00085FFB2
:107DD000FCCF9093C6002F5F3F4F30930701209355
:107DE00006014F5F5F4F4617570718F38091C00099
:107DF00085FDE5CE8091C00085FFF8CFE0CE81E023
:107E00000E94C73C67CE0E94763C803209F08CCE3F
:107E10008091C00085FFFCCFF092C6008091C00029
:107E200085FFFCCFE092C6008091C00085FFFCCFAB
:107E3000D092C6008091C00085FFFCCFC092C600E2
:107E40008091C00085FFFCCFB092C60043CEE09188
:107E50000601F091070194918091C00085FFFCCF4D
:107E60009093C6009CCF80E10E94C73C33CE0E9415
:107E7000763C0E94763C182F0E94763C112309F430
:107E800083C0113009F484C08FE00E94C73C22CE29
:107E900080910C02816080930C02E5CE80910C02EF
:107EA000816080930C0259CF809107018823880F4D
:107EB000880B8A2180930B02809106019091070123
:107EC000880F991F90930701809306018091080203
:107ED00080FF09C080910802909109020196909359
:107EE000090280930802F894F999FECF1127E091D6
:107EF0000601F0910701C8E0D1E08091080290915D
:107F00000902103091F40091570001700130D9F34B
:107F100003E000935700E89500915700017001308D
:107F2000D9F301E100935700E89509901990009169
:107F3000570001700130D9F301E000935700E89534
:107F40001395103498F011270091570001700130FB
:107F5000D9F305E000935700E895009157000170B0
:107F60000130D9F301E100935700E895329602976A
:107F700009F0C7CF103011F00296E5CF112480919F
:107F8000C00085FFB9CEBCCE8EE10E94C73CA2CD19
:0C7F900085E90E94C73C9ECDF894FFCF0D
:027F9C00800063
:040000030000780081
:00000001FF
