:100000000C9463000C948B000C948B000C948B006C
:100010000C948B000C948B000C948B000C948B0034
:100020000C948B000C948B000C948B000C948B0024
:100030000C948B000C948B000C948B000C948B0014
:100040000C94F5040C948B000C948B000C948B0096
:100050000C948B000C948B000C948B000C948B00F4
:100060000C943F050C948B00000000002400270036
:100070002A000000000023002600290000000008DC
:10008000000201000003040700000000000000005F
:10009000010204081020408001020408102001021F
:1000A0000408102000000000250028002B00040494
:1000B0000404040404040202020202020303030310
:1000C00003036D06550811241FBECFEFD8E0DEBF35
:1000D000CDBF11E0A0E0B1E0ECE7F3E102C0059094
:1000E0000D92A032B107D9F721E0A0E2B1E001C042
:1000F0001D92AC3EB207E1F710E0C2E6D0E004C0CA
:100100002197FE010E947908C136D107C9F70E94E4
:10011000E0060C94B1090C940000E091BD01F0914F
:10012000BE01309729F01092B4011092B3010994E6
:100130000895CF93DF93AC01E091BB01F091BC0136
:100140003097F1F09091B6018091B5019817C0F009
:1001500090E0292F30E02617370754F4D901A05E2C
:10016000BE4FEA01C20FD31F88818C939F5FF1CFEE
:100170001092B6016093B501CB01DF91CF91099444
:10018000DF91CF910895CF92DF92EF92FF920F937C
:100190001F93CF93DF936C017A018B01C0E0D0E015
:1001A000CE15DF0589F0D8016D918D01D601ED9155
:1001B000FC910190F081E02DC6010995892B11F485
:1001C0007E0102C02196ECCFC701DF91CF911F9134
:1001D0000F91FF90EF90DF90CF900895833081F0E2
:1001E00028F4813099F08230A1F008958730A9F089
:1001F0008830B9F08430D1F4809180008F7D03C0C5
:10020000809180008F7780938000089584B58F77E8
:1002100002C084B58F7D84BD08958091B0008F7732
:1002200003C08091B0008F7D8093B0000895CF937C
:10023000DF93282F30E0F901E458FF4F8491F90152
:10024000E057FF4FD491F901E255FF4FC491CC2301
:1002500091F081110E94EE00EC2FF0E0EE0FFF1FF5
:10026000EE58FF4FA591B491EC91ED2381E090E021
:1002700021F480E002C080E090E0DF91CF9108950A
:100280001F93CF93DF93282F30E0F901E458FF4FFD
:100290008491F901E057FF4FD491F901E255FF4FE6
:1002A000C491CC23C9F0162F81110E94EE00EC2FCF
:1002B000F0E0EE0FFF1FEC55FF4FA591B4918FB703
:1002C000F894111105C09C91ED2FE095E92302C02F
:1002D000EC91ED2BEC938FBFDF91CF911F9108959F
:1002E000CF93DF9390E0FC01E057FF4F2491FC0196
:1002F000E255FF4F8491882361F190E0880F991FA8
:10030000FC01E859FF4FC591D491FC01EC55FF4F1A
:10031000A591B491611109C09FB7F8948881209587
:1003200082238883EC912E230BC0623061F49FB747
:10033000F8943881822F809583238883EC912E2B2B
:100340002C939FBF06C08FB7F894E8812E2B28838B
:100350008FBFDF91CF9108953FB7F8948091AC01A2
:100360009091AD01A091AE01B091AF0126B5A89BCF
:1003700005C02F3F19F00196A11DB11D3FBFBA2F37
:10038000A92F982F8827820F911DA11DB11DBC0197
:10039000CD0143E0660F771F881F991F4A95D1F75B
:1003A00008950F931F93CF93DF93CDB7DEB72997AF
:1003B0000FB6F894DEBF0FBECDBF0E94AC01009116
:1003C000E1011091E2012091E3013091E401DC01AF
:1003D000CB01801B910BA20BB30B8C329140A1057A
:1003E000B10558F3F8948091D7019091D8019A8380
:1003F0008983A091DB01B091DC01FD0131968C91E4
:1004000089878091D301A091E501B091E60188230D
:1004100009F417C11B82AB32B10509F058C09BB17A
:100420008091E701982B98879BB1809589238F83D2
:100430008F818C83898587FF02C088858C8358854E
:100440006F8149853C812B8189819A815BB9262FF7
:100450003BB900C046FD252F6BB900C05BB9362FF4
:100460002BB900C045FD352F6BB900C05BB9262FF5
:100470003BB900C044FD252F6BB900C05BB9362FD6
:100480002BB900C043FD352F6BB900C05BB9262FD7
:100490003BB900C042FD252F6BB900C05BB9362FB8
:1004A0002BB900C041FD352F6BB900C05BB9262FB9
:1004B0003BB900C040FD252F6BB901975BB9362FC2
:1004C0002BB9419147FD352F6BB901F6B6C0A53266
:1004D000B10509F058C095B18091E701982B988734
:1004E00095B1809589238F838F818C83898587FF40
:1004F00002C088858C8358856F8149853C812B811A
:1005000089819A8155B9262F35B900C046FD252F1E
:1005100065B900C055B9362F25B900C045FD352F46
:1005200065B900C055B9262F35B900C044FD252F47
:1005300065B900C055B9362F25B900C043FD352F28
:1005400065B900C055B9262F35B900C042FD252F29
:1005500065B900C055B9362F25B900C041FD352F0A
:1005600065B900C055B9262F35B900C040FD252F0B
:1005700065B9019755B9362F25B9419147FD352FFA
:1005800065B901F65AC0989709F08BC098B180916F
:10059000E701982B988798B1809589238F838F8165
:1005A0008C83898587FF02C088858C8358856F81FD
:1005B00049853C812B8189819A8158B9262F38B988
:1005C00000C046FD252F68B900C058B9362F28B99C
:1005D00000C045FD352F68B900C058B9262F38B97D
:1005E00000C044FD252F68B900C058B9362F28B97E
:1005F00000C043FD352F68B900C058B9262F38B95F
:1006000000C042FD252F68B900C058B9362F28B95F
:1006100000C041FD352F68B900C058B9262F38B940
:1006200000C040FD252F68B9019758B9362F28B969
:10063000419147FD352F68B901F649873C832B83EB
:100640002EC09C918091E701982B98879C91809572
:1006500089238F838F818E8388E08D8358856F8176
:1006600049853D812E8189819A815C9347FD252FA3
:100670002C93262F3A9531F0441F6C9300C000C094
:1006800000C0F3CF6C93000038E04191019769F707
:10069000B093E601A093E50149873D832E839A83B9
:1006A000898378940E94AC016093E1017093E20128
:1006B0008093E3019093E40129960FB6F894DEBF8E
:1006C0000FBECDBFDF91CF911F910F9108958F92F3
:1006D0009F92AF92BF92CF92DF92EF92FF926B0107
:1006E0007C010E94AC014B015C01C114D104E10406
:1006F000F104F1F00E94AC01DC01CB0188199909E9
:10070000AA09BB09883E9340A105B10570F321E019
:10071000C21AD108E108F10888EE880E83E0981E1D
:10072000A11CB11CC114D104E104F10419F7DDCFFF
:10073000FF90EF90DF90CF90BF90AF909F908F9001
:10074000089585ED8093BC008091BC0084FDFCCFB2
:100750001092B201089540916001262F30E0240FDD
:10076000311D21323105DCF42091B2012430C9F46D
:10077000FC0180E090E0861758F4309160012191EF
:10078000DC01A05CBE4FA30FB11D2C930196F3CFEB
:1007900080916001680F6093600180E0089581E0BE
:1007A000089582E008950895E091B6018091B50121
:1007B000E81730F4F0E0E05EFE4F808190E00895AD
:1007C0008FEF9FEF08959091B6018091B501981732
:1007D00050F4E92FF0E0E05EFE4F208130E09F5FB3
:1007E0009093B60102C02FEF3FEFC90108958091A9
:1007F000B50190E02091B601821B91090895CF9335
:10080000DF9300D0CDB7DEB7CB01642F49835A8385
:100810000E94AB034981842F5A81952F0F900F902E
:10082000DF91CF910895CF93DF931F92CDB7DEB7BD
:10083000698361E0CE0101960E94AB0381E090E004
:100840000F90DF91CF910895089580E090E0089592
:100850006091BF0187EC91E00E9413041092BF01E8
:1008600080E10E941701682F87EC91E00C9413043B
:10087000CF93049759F48091B50190E02091B6018F
:10088000821B91091816190684F02DC08091B501BC
:1008900090E02091B601821B9109181619065CF7A9
:1008A00087EC91E00E94E303F1CF87EC91E00E9496
:1008B000E303C82F8093C20187EC91E00E94E30319
:1008C0008093C30187EC91E00E94E3038093C4010D
:1008D00087EC91E00E94E3038093C501CC3018F4CB
:1008E00081E08093C601CF9108958F929F92AF923D
:1008F000BF92CF92DF92EF92FF92362FE42F60915A
:10090000D5017091D6018617970708F053C0422F82
:1009100050E060E070E05E2B632B4B01AA24BB2407
:10092000C52ED62EE72EFF24FC2DE22F2091DA01D2
:10093000222391F0A22FB0E0A89DF001A99DF00D17
:10094000B89DF00D11248F2EC29E60011124FD2D43
:10095000429FA0011124E52F4091E0015091DD015B
:100960002091DB013091DC01451308C0AC01440F3C
:10097000551F840F951F820F931F0AC0880F991F60
:10098000880F991F820F931FDC01A40FB11D1C92C9
:100990002091DD01DC01A20FB11D8C922091DE01BE
:1009A000DC01A20FB11DFC932091DF01DC01A20F3D
:1009B000B11DEC938091DB019091DC01892B51F00A
:1009C000FF90EF90DF90CF90BF90AF909F908F906F
:1009D0000C94D101FF90EF90DF90CF90BF90AF903B
:1009E0009F908F9008950E94AC091F920F920FB6AE
:1009F0000F9211242F933F938F939F93AF93BF93A5
:100A00008091A8019091A901A091AA01B091AB0198
:100A10003091A70126E0230F2D3720F40296A11D67
:100A2000B11D05C029E8230F0396A11DB11D209318
:100A3000A7018093A8019093A901A093AA01B09364
:100A4000AB018091AC019091AD01A091AE01B0914C
:100A5000AF010196A11DB11D8093AC019093AD0132
:100A6000A093AE01B093AF01BF91AF919F918F91D1
:100A70003F912F910F900FBE0F901F9018951F92CE
:100A80000F920FB60F9211242F933F934F935F93C2
:100A90006F937F938F939F93AF93BF93EF93FF9346
:100AA0008091B900887F803609F49CC068F588324F
:100AB00009F45BC090F4803109F454C038F4882301
:100AC00009F4F6C0883009F44DC0F6C0883109F445
:100AD0004CC0803209F45DC0EFC0803409F468C0B6
:100AE00048F4803309F455C0883309F0E5C0809399
:100AF0008301D8C0803509F44FC0883509F45DC042
:100B0000883409F0D9C0D6C0883909F4C7C0A8F420
:100B1000883709F467C038F4883609F463C0803731
:100B200009F460C0C9C0883809F4B8C0803909F434
:100B30005FC0803809F0C0C05BC0803B09F486C04C
:100B400038F4803A09F466C0883A09F47FC0B4C02A
:100B5000803C09F4A7C0883C09F4A4C0883B09F490
:100B60008AC0AAC08091A60110C09091A501809171
:100B7000A401981770F5E091A50181E08E0F809394
:100B8000A501F0E0EC57FE4F80818093BB0085EC1F
:100B900086C0809383018EC0E091A50181E08E0F15
:100BA0008093A5018091BB00F0E0EC57FE4F80835D
:100BB0009091A5018091A4016EC0E091A50181E012
:100BC0008E0F8093A5018091BB00F0E0EC57FE4FA3
:100BD00080838091B10181116DC081E08093B0016B
:100BE00084EA61C083E08093B20110928201CFCF8A
:100BF00080918201803208F051C0E091820181E051
:100C00008E0F809382018091BB00F0E0EE59FE4F81
:100C10008083BDCF85EC8093BC001092B20180919F
:100C20008201803230F4E0918201F0E0EE59FE4F13
:100C300010826091820170E0E091B701F091B801FB
:100C400082E691E009951092820136C084E080939B
:100C5000B2011092610110926001E091B901F0912E
:100C6000BA01099580916001811105C081E08093EE
:100C7000600110924001E091610181E08E0F80934C
:100C80006101F0E0E05CFE4F80818093BB009091B9
:100C9000610180916001981708F479CF85E880930D
:100CA000BC000AC085EC8093BC001092B20104C065
:100CB000109283010E94A103FF91EF91BF91AF9128
:100CC0009F918F917F916F915F914F913F912F9164
:100CD0000F900FBE0F901F9018951092CA0110929E
:100CE000C90188EE93E0A0E0B0E08093CB0190933F
:100CF000CC01A093CD01B093CE0182E191E090931D
:100D0000C8018093C7011092D4011092DA011092A9
:100D1000E1011092E2011092E3011092E40181E0FE
:100D20008093E0018093DD011092DE0192E09093C8
:100D3000DF018093D30184E290E09093D801809307
:100D4000D7010E947F089093DC018093DB0100971C
:100D500061F024E2FC0111922A95E9F78CE090E021
:100D60009093D6018093D50108C01092D8011092BB
:100D7000D7011092D6011092D5018AE08093D90153
:100D80008091D401882341F061E08AE00E947001E3
:100D900060E08AE00E944001E8EBF0E0E491F0E0DE
:100DA000EE0FFF1FEC55FF4F859194919093E60154
:100DB0008093E501EAE9F0E0E491E093E70108952A
:100DC000789484B5826084BD84B5816084BD85B526
:100DD000826085BD85B5816085BD80916E00816032
:100DE00080936E00109281008091810082608093D8
:100DF00081008091810081608093810080918000DA
:100E00008160809380008091B10084608093B10004
:100E10008091B00081608093B00080917A008460FE
:100E200080937A0080917A00826080937A0080912A
:100E30007A008E7F80937A0080917A008068809318
:100E40007A001092C10062E08EE00E94700162E0C0
:100E50008FE00E94700162E080E10E9470018CEBE3
:100E60008093BA008DE890E09093BA018093B90125
:100E700089E990E09093B8018093B7011092B60190
:100E80001092B5011092B4011092B3011092B20108
:100E900081E08093B1011092B00161E082E10E9493
:100EA000400161E083E10E9440018091B9008E7FA2
:100EB0008093B9008091B9008D7F8093B90080E262
:100EC0008093B80085E48093BC0088E394E090931D
:100ED000BC018093BB0188E294E09093BE018093B3
:100EE000BD018091D90187FD08C061E00E947001B9
:100EF00060E08091D9010E94400181E08093D4019B
:100F00006091DA01633321F12091DB013091DC0142
:100F1000615031F070E08FEF92E30E94650802C0EB
:100F200060E070E0F9014091D7015091D801CF0104
:100F3000821B930B8417950740F44081469FC001A4
:100F4000479F900D11249193EECF83E38093DA01B4
:100F50008091DB019091DC01892B11F00E94D1017D
:100F600000E010E0C0E0D0E09E01AE01BE01C8018B
:100F70000E9475042496C83CD105B1F70F5F1F4F3E
:100F80000C30110579F768EC70E080E090E00E9489
:100F9000670300E010E0C8ECD0E09E01AE01BE01A6
:100FA000C8010E9475042497C1F720E030E040E0BA
:100FB00050E060E070E0C8010E9475040F5F1F4FB1
:100FC0000C30110541F78FE00E941701EC018EE013
:100FD0000E94170124E0CC0FDD1F2A95E1F78C2B2E
:100FE0008093C00100E010E08FE00E941701EC0147
:100FF0008EE00E94170194E0CC0FDD1F9A95E1F777
:10100000C82BC093C1019091C001C91769F1C111EA
:1010100029C0409104015091050160910601709131
:101020000701409300015093010160930201709306
:1010300003018091BF01903181F441505109610950
:101040007109409304015093050160930601709368
:101050000701813839F0815003C08F3719F08F5F55
:101060008093BF01C093C0018091C601882381F0A5
:101070001092C6012091C50130E04091C40150E0BA
:101080006091C30170E08091C20190E00E947504FC
:1010900061E070E080E090E00E94670301151105B7
:1010A00009F4A2CF0E9400009FCF8091DB019091B4
:1010B000DC01009711F00E9414098091D90187FD8D
:1010C00003C060E00C9470010895AA1BBB1B51E1A2
:1010D00007C0AA1FBB1FA617B70710F0A61BB70BA8
:1010E000881F991F5A95A9F780959095BC01CD014D
:1010F0000895EE0FFF1F0590F491E02D0994CF9312
:10110000DF938230910510F482E090E0E091EA01F3
:10111000F091EB0120E030E0C0E0D0E0309711F139
:101120004081518148175907C0F04817590761F4A9
:1011300082819381209719F09B838A832BC090939F
:10114000EB018093EA0126C02115310519F0421701
:10115000530718F49A01BE01DF01EF010280F38109
:10116000E02DDCCF2115310509F1281B390B243086
:10117000310590F412968D919C911397611571052C
:1011800021F0FB019383828304C09093EB01809351
:10119000EA01FD01329644C0FD01E20FF31F819385
:1011A0009193225031092D933C933AC02091E8014C
:1011B0003091E901232B41F420910A0130910B0178
:1011C0003093E9012093E801209108013091090151
:1011D0002115310541F42DB73EB740910C015091D6
:1011E0000D01241B350BE091E801F091E901E217B4
:1011F000F307A0F42E1B3F0B2817390778F0AC013A
:101200004E5F5F4F2417350748F04E0F5F1F509316
:10121000E9014093E8018193919302C0E0E0F0E09E
:10122000CF01DF91CF9108950F931F93CF93DF9359
:10123000009709F48CC0FC0132971382128200914E
:10124000EA011091EB010115110581F42081318132
:10125000820F931F2091E8013091E9012817390787
:1012600079F5F093E901E093E80171C0D80140E01D
:1012700050E0AE17BF0750F412962D913C91139792
:10128000AD012115310509F1D901F3CF9D01DA0135
:101290003383228360817181860F971F82179307A2
:1012A00069F4EC0128813981260F371F2E5F3F4FEB
:1012B000318320838A819B8193838283452B29F408
:1012C000F093EB01E093EA0142C01396FC93EE9396
:1012D0001297ED01499159919E01240F351FE21794
:1012E000F30771F480819181840F951F0296119606
:1012F0009C938E938281938113969C938E931297E5
:10130000E0E0F0E0D80112968D919C911397009740
:1013100019F0F8018C01F6CF8D919C9198012E5F08
:101320003F4F820F931F2091E8013091E901281768
:10133000390769F4309729F41092EB011092EA0111
:1013400002C0138212821093E9010093E801DF9139
:10135000CF911F910F91089581E090E0F8940C9443
:10136000B10910E0C2E6D0E004C0FE010E94790895
:0C1370002196C336D107C9F7F894FFCFCF
:10137C0000000100000001000000EC0180000000F2
:10138C0000001304FF032504D303F703E303D40382
:00000001FF
