:100000000C9465000C948D000C948D000C948D0064
:100010000C948D000C948D000C948D000C948D002C
:100020000C948D000C948D000C948D000C948D001C
:100030000C948D000C948D000C948D000C948D000C
:100040000C94A7020C948D000C948D000C948D00E0
:100050000C948D000C948D000C948D000C948D00EC
:100060000C94F1020C948D00760869087A087F08D8
:100070008C0891089E0800000000240027002A0038
:100080000000000800020100000304070000000057
:100090000000000001020408102040800102040852
:1000A0001020010204081020000000002500280094
:1000B0002B000404040404040404020202020202E9
:1000C000030303030303370C270C11241FBECFEFD8
:1000D000D8E0DEBFCDBF12E0A0E0B1E0ECE2FCE191
:1000E00002C005900D92A836B107D9F723E0A8E623
:1000F000B2E001C01D92A833B207E1F710E0C4E6F8
:10010000D0E004C02197FE010E94BD0CC336D10788
:10011000C9F70E9417060C94090E0C940000E09198
:100120000503F0910603309729F01092FE02109219
:10013000FD0209940895CF93DF93AC01E09188020A
:10014000F09189023097F1F0909100038091FF02C5
:100150009817C0F090E0292F30E02617370754F4A5
:10016000D901A859BD4FEA01C20FD31F88818C93D2
:100170009F5FF1CF109200036093FF02CB01DF91EC
:10018000CF910994DF91CF910895CF92DF92EF92B2
:10019000FF920F931F93CF93DF936C017A018B0132
:1001A000C0E0D0E0CE15DF0589F0D8016D918D015A
:1001B000D601ED91FC910190F081E02DC6010995E9
:1001C000892B11F47E0102C02196ECCFC701DF918B
:1001D000CF911F910F91FF90EF90DF90CF900895F6
:1001E00085ED8093BC008091BC0084FDFCCF109213
:1001F000FC0208954091AA02262F30E0240F311D01
:1002000021323105DCF42091FC022430C9F4FC01D8
:1002100080E090E0861758F43091AA022191DC0129
:10022000A657BD4FA30FB11D2C930196F3CF80911C
:10023000AA02680F6093AA0280E0089581E0089501
:1002400082E008950895E09100038091FF02E8178D
:1002500030F4F0E0E859FD4F808190E008958FEF91
:100260009FEF0895909100038091FF02981750F43A
:10027000E92FF0E0E859FD4F208130E09F5F909337
:10028000000302C02FEF3FEFC90108958091FF02E4
:1002900090E020910003821B91090895CF93DF9392
:1002A00000D0CDB7DEB7CB01642F49835A830E94BB
:1002B000FA004981842F5A81952F0F900F90DF917A
:1002C000CF910895CF93DF931F92CDB7DEB76983A7
:1002D00061E0CE0101960E94FA0081E090E00F906B
:1002E000DF91CF910895089580E090E00895CF9335
:1002F000DF9380910803813079F5C0910903D09193
:100300000A038091070390E0019727E0289FF001FE
:10031000299FF00D1124EC0FFD1FEA5FFE4F608155
:1003200083E193E00E946201CE018D7F019711F07D
:10033000259781F410920A031092090310920C037E
:1003400010920B03109212031092110310921003DB
:1003500010920F0310920803DF91CF91089560E08F
:1003600070E0CB010E94BC050C941F0463E073E0B5
:1003700083E090E00E94BC050C941F040E94040ED0
:1003800090E0FC01E058FF4F3491FC01EC56FF4F28
:100390002491FC01EE54FF4FE491EE2309F43BC09D
:1003A000332339F1333091F038F43130A9F0323061
:1003B00001F584B58F7D12C0373091F03830A1F04F
:1003C0003430B9F4809180008F7D03C0809180002B
:1003D0008F77809380000DC084B58F7784BD09C06E
:1003E0008091B0008F7703C08091B0008F7D8093A3
:1003F000B000F0E0EE0FFF1FE855FF4FA591B4915C
:100400008FB7F894EC91611103C020952E2301C0A1
:100410002E2B2C938FBF0895CF93DF9390E0FC0198
:10042000EC56FF4F2491FC01EE54FF4F849188233A
:1004300061F190E0880F991FFC01EA58FF4FC591C8
:10044000D491FC01E855FF4FA591B491611109C009
:100450009FB7F8948881209582238883EC912E237E
:100460000BC0623061F49FB7F8943881822F809579
:1004700083238883EC912E2B2C939FBF06C08FB7CC
:10048000F894E8812E2B28838FBFDF91CF910895B8
:100490003FB7F8948091F6029091F702A091F8028C
:1004A000B091F90226B5A89B05C02F3F19F001961F
:1004B000A11DB11D3FBFBA2FA92F982F8827820FEA
:1004C000911DA11DB11DBC01CD0143E0660F771F39
:1004D000881F991F4A95D1F708958F929F92AF92E6
:1004E000BF92CF92DF92EF92FF926B017C010E944C
:1004F00048024B015C01C114D104E104F104F1F0A4
:100500000E944802DC01CB0188199909AA09BB099C
:10051000883E9340A105B10570F321E0C21AD108CD
:10052000E108F10888EE880E83E0981EA11CB11C3A
:10053000C114D104E104F10419F7DDCFFF90EF906D
:10054000DF90CF90BF90AF909F908F9008951F92B3
:100550000F920FB60F9211242F933F938F939F9377
:10056000AF93BF938091F2029091F302A091F402B5
:10057000B091F5023091F10226E0230F2D3720F4DF
:100580000296A11DB11D05C029E8230F0396A11DE8
:10059000B11D2093F1028093F2029093F302A09395
:1005A000F402B093F5028091F6029091F702A091C7
:1005B000F802B091F9020196A11DB11D8093F602D7
:1005C0009093F702A093F802B093F902BF91AF9114
:1005D0009F918F913F912F910F900FBE0F901F9081
:1005E00018951F920F920FB60F9211242F933F93DD
:1005F0004F935F936F937F938F939F93AF93BF932B
:10060000EF93FF938091B900887F803609F49CC0F6
:1006100068F5883209F45BC090F4803109F454C065
:1006200038F4882309F4F6C0883009F44DC0F6C0C8
:10063000883109F44CC0803209F45DC0EFC08034C9
:1006400009F468C048F4803309F455C0883309F0D0
:10065000E5C08093CD02D8C0803509F44FC08835FD
:1006600009F45DC0883409F0D9C0D6C0883909F4CE
:10067000C7C0A8F4883709F467C038F4883609F48D
:1006800063C0803709F460C0C9C0883809F4B8C0B5
:10069000803909F45FC0803809F0C0C05BC0803B7E
:1006A00009F486C038F4803A09F466C0883A09F43F
:1006B0007FC0B4C0803C09F4A7C0883C09F4A4C042
:1006C000883B09F48AC0AAC08091F00210C09091C2
:1006D000EF028091EE02981770F5E091EF0281E051
:1006E0008E0F8093EF02F0E0E253FD4F8081809304
:1006F000BB0085EC86C08093CD028EC0E091EF02F6
:1007000081E08E0F8093EF028091BB00F0E0E25316
:10071000FD4F80839091EF028091EE026EC0E091D8
:10072000EF0281E08E0F8093EF028091BB00F0E03A
:10073000E253FD4F80838091FB0281116DC081E007
:100740008093FA0284EA61C083E08093FC021092F5
:10075000CC02CFCF8091CC02803208F051C0E09122
:10076000CC0281E08E0F8093CC028091BB00F0E040
:10077000E455FD4F8083BDCF85EC8093BC00109283
:10078000FC028091CC02803230F4E091CC02F0E0A7
:10079000E455FD4F10826091CC0270E0E0910103BE
:1007A000F09102038CEA92E009951092CC0236C0D7
:1007B00084E08093FC021092AB021092AA02E091B6
:1007C0000303F091040309958091AA02811105C0E9
:1007D00081E08093AA0210928A02E091AB0281E04C
:1007E0008E0F8093AB02F0E0E657FD4F808180933F
:1007F000BB009091AB028091AA02981708F479CFC0
:1008000085E88093BC000AC085EC8093BC00109200
:10081000FC0204C01092CD020E94F000FF91EF9103
:10082000BF91AF919F918F917F916F915F914F9108
:100830003F912F910F900FBE0F901F9018950F931F
:100840001F93CF93DF93CDB7DEB729970FB6F894F8
:10085000DEBF0FBECDBF8091270390912803892B67
:1008600009F47FC10E94480200912D0310912E03CC
:1008700020912F0330913003DC01CB01801B910BC1
:10088000A20BB30B8C329140A105B10558F3F8943B
:1008900080912303909124039A838983A091270355
:1008A000B0912803FD0131968C91898780911F03B7
:1008B000A0913103B0913203882309F417C11B8240
:1008C000AB32B10509F058C09BB180913303982B2E
:1008D00098879BB1809589238F838F818C838985AD
:1008E00087FF02C088858C8358856F8149853C814C
:1008F0002B8189819A815BB9262F3BB900C046FDC7
:10090000252F6BB900C05BB9362F2BB900C045FD50
:10091000352F6BB900C05BB9262F3BB900C044FD31
:10092000252F6BB900C05BB9362F2BB900C043FD32
:10093000352F6BB900C05BB9262F3BB900C042FD13
:10094000252F6BB900C05BB9362F2BB900C041FD14
:10095000352F6BB900C05BB9262F3BB900C040FDF5
:10096000252F6BB901975BB9362F2BB9419147FD04
:10097000352F6BB901F6B6C0A532B10509F058C0E4
:1009800095B180913303982B988795B180958923F1
:100990008F838F818C83898587FF02C088858C83B4
:1009A00058856F8149853C812B8189819A8155B910
:1009B000262F35B900C046FD252F65B900C055B9B1
:1009C000362F25B900C045FD352F65B900C055B992
:1009D000262F35B900C044FD252F65B900C055B993
:1009E000362F25B900C043FD352F65B900C055B974
:1009F000262F35B900C042FD252F65B900C055B975
:100A0000362F25B900C041FD352F65B900C055B955
:100A1000262F35B900C040FD252F65B9019755B97E
:100A2000362F25B9419147FD352F65B901F65AC0DA
:100A3000989709F08BC098B180913303982B9887D1
:100A400098B1809589238F838F818C83898587FFD7
:100A500002C088858C8358856F8149853C812B81B4
:100A600089819A8158B9262F38B900C046FD252FB3
:100A700068B900C058B9362F28B900C045FD352FD8
:100A800068B900C058B9262F38B900C044FD252FD9
:100A900068B900C058B9362F28B900C043FD352FBA
:100AA00068B900C058B9262F38B900C042FD252FBB
:100AB00068B900C058B9362F28B900C041FD352F9C
:100AC00068B900C058B9262F38B900C040FD252F9D
:100AD00068B9019758B9362F28B9419147FD352F8C
:100AE00068B901F649873C832B832EC09C91809185
:100AF0003303982B98879C91809589238F838F81CE
:100B00008E8388E08D8358856F8149853D812E8154
:100B100089819A815C9347FD252F2C93262F3A9546
:100B200031F0441F6C9300C000C000C0F3CF6C9341
:100B3000000038E04191019769F7B0933203A09328
:100B4000310349873D832E839A83898378940E9459
:100B5000480260932D0370932E0380932F0390938C
:100B6000300329960FB6F894DEBF0FBECDBFDF91DC
:100B7000CF911F910F910895CF92DF92EF92FF9244
:100B80000F931F932091210330912203232B09F40B
:100B900047C06C01EE24FF24FC2D072F182F292FAE
:100BA0003327E02F562F40912603442361F0C49E43
:100BB00060011124FD2D049F80011124E12F649F09
:100BC00090011124532FA0912C03B091290320915F
:100BD000270330912803AB1789F0C92EDD24EE24BA
:100BE000FF24C9018A0F911DDC01442329F0C49E12
:100BF000B0011124672F01C06C2D6C9380912903E3
:100C0000D901A80FB11DFC9380912A03D901A80F27
:100C1000B11DEC9380912B03F901E80FF11D508376
:100C20001F910F91FF90EF90DF90CF9008957894EF
:100C300084B5826084BD84B5816084BD85B58260E1
:100C400085BD85B5816085BD80916E008160809392
:100C50006E001092810080918100826080938100FB
:100C6000809181008160809381008091800081600B
:100C7000809380008091B10084608093B100809166
:100C8000B00081608093B00080917A00846080938E
:100C90007A0080917A00826080937A0080917A0055
:100CA0008E7F80937A0080917A00806880937A00AA
:100CB0001092C10061E081E10E940C0261E080E1DC
:100CC0000E940C0261E08FE00E940C0261E08EE065
:100CD0000E940C0261E08EE00E94C00160E08FE0A3
:100CE0000E94C00160E080E10E94C00160E081E1FB
:100CF0000E94C00114B88FEF85B91AB88BB98091E2
:100D0000250387FD08C061E00E940C0260E080912D
:100D100025030E94C00181E080932003C3E0D0E05E
:100D2000C12CD12C7601B60155274427BE2DAD2DFF
:100D30009C2D8827842B952BA62BB72BBC01CD018E
:100D40006C297D298E299F290E94BC050E941F04C1
:100D500066E070E080E090E00E946D028FEFC81ABC
:100D6000D80AE80AF80A9EE1C916D104E104F104A0
:100D7000D1F6B60155274427BE2DAD2D9C2D8827D1
:100D8000842B952BA62BB72BBC01CD016C297D297B
:100D90008E299F290E94BC050E941F0466E070E016
:100DA00080E090E00E946D0281E0C81AD108E1085D
:100DB000F108F9F6219709F0B3CF60E070E0CB01BC
:100DC0000E94BC058EEB8093BA008FE890E0909370
:100DD0000403809303038BE990E0909302038093D4
:100DE0000103109200031092FF021092FE02109273
:100DF000FD021092FC0281E08093FB021092FA0245
:100E000061E082E10E94C00161E083E10E94C001D3
:100E10008091B9008E7F8093B9008091B9008D7F59
:100E20008093B90080E28093B80085E48093BC0091
:100E300087E791E0909306038093050382E0E82E14
:100E4000F12C96E0C92ED12CC2E0D0E001E010E0F8
:100E500024E0622E712C33E0232E312C46E0A42EA8
:100E6000B12C55E0452E512C1C9961C010921203F3
:100E7000109211031092100310920F0310920E03A0
:100E800010920D031C9907C061E070E080E090E0D3
:100E90000E946D02F7CF80900B0390900C0368ECDA
:100EA00070E080E090E081149104F9F40E946D02FA
:100EB0001C9912C01C9907C061E070E080E090E0CE
:100EC0000E946D02F7CFD0930C03C0930B03D09315
:100ED0000A03C09309032BC010930C0300930B0368
:100EE00010930A030093090322C00E946D021C990B
:100EF0000DC01C9907C061E070E080E090E00E94A6
:100F00006D02F7CF92E08916910449F410920A031A
:100F10001092090310920C0310920B0308C0D09397
:100F20000A03C0930903D0930C03C0930B031F99CA
:100F300061C010920C0310920B03109210031092D8
:100F40000F0310920E0310920D031F9907C061E06A
:100F500070E080E090E00E946D02F7CF8090110376
:100F60009090120368EC70E080E090E081149104AE
:100F7000F9F40E946D021F9912C01F9907C061E029
:100F800070E080E090E00E946D02F7CFD0931203F2
:100F9000C093110370920A03609209032BC010934F
:100FA00012030093110330920A032092090322C016
:100FB0000E946D021F990DC01F9907C061E070E08B
:100FC00080E090E00E946D02F7CF82E088169104E5
:100FD00049F410920A03109209031092120310921E
:100FE000110308C070920A0360920903D0931203A0
:100FF000C09311031E9961C0109212031092110345
:1010000010920C0310920B0310920E0310920D031A
:101010001E9907C061E070E080E090E00E946D02E0
:10102000F7CF80900F039090100368EC70E080E0A1
:1010300090E081149104F9F40E946D021E9912C08F
:101040001E9907C061E070E080E090E00E946D02B0
:10105000F7CFD0931003C0930F03B0920A03A0926E
:1010600009032BC01093100300930F0350920A033F
:101070004092090322C00E946D021E990DC01E9964
:1010800007C061E070E080E090E00E946D02F7CF61
:1010900092E08916910449F410920A031092090310
:1010A0001092100310920F0308C0B0920A03A0928E
:1010B0000903D0931003C0930F03E0910903F0914B
:1010C0000A03E730F10508F03FC0EC5CFF4F0C94D9
:1010D000BD0C80910D0390910E03B6010E94A90CE6
:1010E000CB01B7010E94A90C019721F460E070E0E8
:1010F000CB0128C060E070E085E090E023C08091E3
:101100000D0390910E03B6010E94A90CCB01B7010B
:101110000E94A90C019751F360E075E080E090E037
:1011200011C080910D0390910E03B6010E94A90C8D
:10113000CB01B7010E94A90C0197C1F265E070E0F4
:1011400080E090E00E94BC050E941F04809108038B
:10115000811166C360E081E10E94C00161E080E12D
:101160000E94C00161E08FE00E94C00161E08EE05A
:101170000E94C00162E070E080E090E00E946D0299
:1011800089B18F3E09F449C050F48F3B09F45FC028
:101190008F3D09F44FC08F3709F073C065C08B3F96
:1011A00011F118F4873F61F16CC08D3F79F08E3FEB
:1011B00009F067C089B18F3F19F00E94B601FACFDC
:1011C0000E94AF0181E08093080328C389B18F3F5B
:1011D00019F00E94B601FACF0E94AF0181E080931E
:1011E000080382E01BC389B18F3F19F00E94B6014A
:1011F000FACF0E94AF0181E08093080383E00EC321
:1012000089B18F3F19F00E94B601FACF0E94AF0159
:1012100081E08093080384E001C389B18F3F19F016
:101220000E94B601FACF0E94AF0181E080930803CB
:1012300085E0F4C289B18F3F19F00E94B601FACF60
:101240000E94AF0181E08093080386E0E7C289B184
:101250008F3F19F00E94B601FACF0E94AF0181E0E2
:101260008093080387E0DAC289B18F3F19F00E94AA
:10127000B601FACF0E94AF0181E08093080388E0B5
:10128000CDC283B18B3D11F118F4873D61F138C0B7
:101290008D3D79F08E3DA1F583B18F3D19F00E940F
:1012A000B601FACF0E94AF0181E08093080389E084
:1012B000B5C283B18F3D19F00E94B601FACF0E94EA
:1012C000AF0181E0809308038AE0A8C283B18F3D1B
:1012D00019F00E94B601FACF0E94AF0181E080931D
:1012E00008038BE09BC283B18F3D19F00E94B601C9
:1012F000FACF0E94AF0181E0809308038CE08EC298
:1013000061E081E10E94C00160E080E10E94C001D3
:1013100061E08FE00E94C00161E08EE00E94C001A8
:1013200062E070E080E090E00E946D0289B18F3E43
:1013300009F450C050F48F3B09F466C08F3D09F4A6
:1013400056C08F3709F07AC06CC08B3F19F118F482
:10135000873F69F173C08D3F81F08E3F09F06EC009
:1013600089B18F3F19F00E94B601FACF0E94AF01F8
:1013700081E0809308038DE051C289B18F3F19F05D
:101380000E94B601FACF0E94AF0181E0809308036A
:101390008EE044C289B18F3F19F00E94B601FACFA6
:1013A0000E94AF0181E0809308038FE037C289B1CA
:1013B0008F3F49F00E94B60161E070E080E090E06C
:1013C0000E946D02F4CF0E94AF0181E08093080378
:1013D00080E124C289B18F3F19F00E94B601FACF93
:1013E0000E94AF0181E08093080381E117C289B1B7
:1013F0008F3F19F00E94B601FACF0E94AF0181E041
:101400008093080382E10AC289B18F3F19F00E94DC
:10141000B601FACF0E94AF0181E08093080383E117
:10142000FDC189B18F3F19F00E94B601FACF0E9429
:10143000AF0181E08093080384E1F0C183B18B3D6B
:1014400011F118F4873D61F138C08D3D79F08E3D82
:10145000A1F583B18F3D19F00E94B601FACF0E9429
:10146000AF0181E08093080385E1D8C183B18F3D4E
:1014700019F00E94B601FACF0E94AF0181E080937B
:10148000080386E1CBC183B18F3D19F00E94B601FC
:10149000FACF0E94AF0181E08093080387E1BEC1CB
:1014A00083B18F3D19F00E94B601FACF0E94AF01BF
:1014B00081E08093080388E1B1C161E081E10E948D
:1014C000C00161E080E10E94C00160E08FE00E9405
:1014D000C00161E08EE00E94C00162E070E080E047
:1014E00090E00E946D0289B18F3E09F44AC050F429
:1014F0008F3B09F460C08F3D09F450C08F3709F06D
:1015000074C066C08B3F19F118F4873F69F16DC054
:101510008D3F81F08E3F09F068C089B18F3F19F08F
:101520000E94B601FACF0E94AF0181E080930803C8
:1015300089E174C189B18F3F19F00E94B601FACFD9
:101540000E94AF0181E0809308038AE167C189B1FD
:101550008F3F19F00E94B601FACF0E94AF0181E0DF
:10156000809308038BE15AC189B18F3F19F00E9423
:10157000B601FACF0E94AF0181E0809308038CE1AD
:101580004DC189B18F3F19F00E94B601FACF0E9478
:10159000AF0181E0809308038DE140C189B18F3FA5
:1015A00019F00E94B601FACF0E94AF0181E080934A
:1015B00008038EE133C189B18F3F19F00E94B60153
:1015C000FACF0E94AF0181E0809308038FE126C12A
:1015D00089B18F3F19F00E94B601FACF0E94AF0186
:1015E00081E08093080380E219C183B18B3D11F142
:1015F00018F4873D61F138C08D3D79F08E3DA1F53D
:1016000083B18F3D19F00E94B601FACF0E94AF015D
:1016100081E08093080381E201C183B18F3D19F01D
:101620000E94B601FACF0E94AF0181E080930803C7
:1016300082E2F4C083B18F3D19F00E94B601FACF67
:101640000E94AF0181E08093080383E2E7C083B189
:101650008F3D19F00E94B601FACF0E94AF0181E0E0
:101660008093080384E2DAC061E081E10E94C00156
:1016700061E080E10E94C00161E08FE00E94C00152
:1016800060E08EE00E94C00162E070E080E090E0E7
:101690000E946D0289B18F3E09F44AC050F48F3B1D
:1016A00009F460C08F3D09F450C08F3709F074C051
:1016B00066C08B3F19F118F4873F69F16DC08D3F0B
:1016C00081F08E3F09F068C089B18F3F19F00E9408
:1016D000B601FACF0E94AF0181E08093080385E252
:1016E0009DC089B18F3F19F00E94B601FACF0E94C8
:1016F000AF0181E08093080386E290C089B18F3FFB
:1017000019F00E94B601FACF0E94AF0181E08093E8
:10171000080387E283C089B18F3F19F00E94B601A8
:10172000FACF0E94AF0181E08093080388E276C07F
:1017300089B18F3F19F00E94B601FACF0E94AF0124
:1017400081E08093080389E269C089B18F3F19F075
:101750000E94B601FACF0E94AF0181E08093080396
:101760008AE25CC089B18F3F19F00E94B601FACFBE
:101770000E94AF0181E0809308038BE24FC089B1E2
:101780008F3F19F00E94B601FACF0E94AF0181E0AD
:10179000809308038CE242C083B18B3D11F118F4B1
:1017A000873D61F138C08D3D79F08E3DA1F583B163
:1017B0008F3D19F00E94B601FACF0E94AF0181E07F
:1017C000809308038DE22AC083B18F3D19F00E94F7
:1017D000B601FACF0E94AF0181E0809308038EE248
:1017E0001DC083B18F3D19F00E94B601FACF0E944F
:1017F000AF0181E0809308038FE210C083B18F3D79
:1018000019F00E94B601FACF0E94AF0181E08093E7
:10181000080380E303C0109208038FEF809307034F
:1018200080910D0390910E03019690930E03809387
:101830000D036AE070E080E090E00E946D0280E0BD
:1018400090E0892B09F410CB0E9400000DCB809111
:10185000270390912803009711F00E946C0D80914E
:10186000250387FD03C060E00C940C0208951092DC
:1018700016031092150388EE93E0A0E0B0E0809389
:10188000170390931803A0931903B0931A038AE5E2
:1018900092E090931403809313031092200310920C
:1018A000260310922D0310922E0310922F031092F4
:1018B000300381E080932C038093290310922A0344
:1018C00092E090932B0380931F0383E090E090932A
:1018D0002403809323030E94D70C909328038093C2
:1018E0002703009759F0FC0110821182128281E0D7
:1018F00090E0909322038093210308C01092240368
:101900001092230310922203109221038DE0809302
:10191000250380912003882341F061E08DE00E943F
:101920000C0260E08DE00E94C001EFEBF0E0E4917A
:10193000F0E0EE0FFF1FE855FF4F859194919093D3
:10194000320380933103E1EAF0E0E491E093330362
:10195000089597FB072E16F4009407D077FD09D061
:101960000E94C30C07FC05D03EF4909581959F4FD3
:101970000895709561957F4F0895EE0FFF1F0590B4
:10198000F491E02D0994AA1BBB1B51E107C0AA1FCB
:10199000BB1FA617B70710F0A61BB70B881F991F10
:1019A0005A95A9F780959095BC01CD010895CF93E4
:1019B000DF938230910510F482E090E0E0913603ED
:1019C000F091370320E030E0C0E0D0E0309711F133
:1019D0004081518148175907C0F04817590761F4F1
:1019E00082819381209719F09B838A832BC09093E7
:1019F00037038093360326C02115310519F04217AD
:101A0000530718F49A01BE01DF01EF010280F38150
:101A1000E02DDCCF2115310509F1281B390B2430CD
:101A2000310590F412968D919C9113976115710573
:101A300021F0FB019383828304C09093370380934A
:101A40003603FD01329644C0FD01E20FF31F81937E
:101A50009193225031092D933C933AC02091340345
:101A600030913503232B41F4209102013091030181
:101A7000309335032093340320910001309101010C
:101A80002115310541F42DB73EB740910401509125
:101A90000501241B350BE0913403F0913503E21767
:101AA000F307A0F42E1B3F0B2817390778F0AC0181
:101AB0004E5F5F4F2417350748F04E0F5F1F50935E
:101AC0003503409334038193919302C0E0E0F0E04A
:101AD000CF01DF91CF9108950F931F93CF93DF93A1
:101AE000009709F48CC0FC01329713821282009196
:101AF0003603109137030115110581F420813181DE
:101B0000820F931F20913403309135032817390732
:101B100079F5F0933503E093340371C0D80140E0C8
:101B200050E0AE17BF0750F412962D913C911397D9
:101B3000AD012115310509F1D901F3CF9D01DA017C
:101B40003383228360817181860F971F82179307E9
:101B500069F4EC0128813981260F371F2E5F3F4F32
:101B6000318320838A819B8193838283452B29F44F
:101B7000F0933703E093360342C01396FC93EE9341
:101B80001297ED01499159919E01240F351FE217DB
:101B9000F30771F480819181840F951F029611964D
:101BA0009C938E938281938113969C938E9312972C
:101BB000E0E0F0E0D80112968D919C911397009788
:101BC00019F0F8018C01F6CF8D919C9198012E5F50
:101BD0003F4F820F931F2091340330913503281714
:101BE000390769F4309729F41092370310923603BD
:101BF00002C0138212821093350300933403DF91E5
:101C0000CF911F910F91089581E090E0F8940C948A
:101C1000090E10E0C4E6D0E004C0FE010E94BD0C35
:0C1C20002196C536D107C9F7F894FFCF14
:101C2C000000380380001B1B1B1B1B8080313131D3
:101C3C00212181813232324040828233333323235B
:101C4C0083833434342424848435353525258585A3
:101C5C003636365E5E86863737372626878738389F
:101C6C00382A2A8888393939282889893030302906
:101C7C00298A8A087F7F08088B8B09090909098C36
:101C8C008C7151517B7B8D8D7757577D7D8E8E65F9
:101C9C0045455B5B8F8F7252525D5D9090745454CE
:101CAC002F2F91917959595C5C92927555557C7C8A
:101CBC0093936949497E7E94946F4F4F272795954E
:101CCC007050502222969600000000000000B4B420
:101CDC00B4B4B49898B5B5B5B5B599996141413BD3
:101CEC003B9A9A7353533A3A9B9B64444460609C6E
:101CFC009C6646462B2B9D9D6747472D2D9E9E68C7
:101D0C0048485F5F9F9F6A4A4A3D3DA0A06B4B4B82
:101D1C003F3FA1A16C4C4C0000A2A20D0D0D0D0D6E
:101D2C00A3A3B6B6B6B6B6A4A4B7B7B7B7B7A5A5AE
:101D3C007A5A5A0000A6A67858580000A7A7634301
:101D4C00430000A8A87656560000A9A9624242009A
:101D5C0000AAAA6E4E4E0000ABAB6D4D4D0000AC10
:101D6C00AC2C2C2C3C3CADAD2E2E2E3C3EAEAE20E5
:101D7C0020202020AFAF0000000062014E01740152
:081D8C0022014601320123018E
:00000001FF
